{
  "contractName": "Airdrop",
  "abi": [
    {
      "inputs": [],
      "payable": false,
      "stateMutability": "nonpayable",
      "type": "constructor"
    },
    {
      "anonymous": false,
      "inputs": [
        {
          "indexed": false,
          "internalType": "uint256",
          "name": "airdropID",
          "type": "uint256"
        },
        {
          "indexed": false,
          "internalType": "address",
          "name": "receiver",
          "type": "address"
        },
        {
          "indexed": false,
          "internalType": "address",
          "name": "tokenAddress",
          "type": "address"
        },
        {
          "indexed": false,
          "internalType": "uint256",
          "name": "airdropAmount",
          "type": "uint256"
        },
        {
          "indexed": false,
          "internalType": "uint256",
          "name": "timelock",
          "type": "uint256"
        },
        {
          "indexed": false,
          "internalType": "address",
          "name": "adder",
          "type": "address"
        }
      ],
      "name": "AirdropAdded",
      "type": "event"
    },
    {
      "anonymous": false,
      "inputs": [
        {
          "indexed": false,
          "internalType": "uint256",
          "name": "airdropID",
          "type": "uint256"
        },
        {
          "indexed": false,
          "internalType": "address",
          "name": "receiver",
          "type": "address"
        },
        {
          "indexed": false,
          "internalType": "address",
          "name": "tokenAddress",
          "type": "address"
        },
        {
          "indexed": false,
          "internalType": "uint256",
          "name": "airdropAmount",
          "type": "uint256"
        },
        {
          "indexed": false,
          "internalType": "uint256",
          "name": "timelock",
          "type": "uint256"
        }
      ],
      "name": "AirdropWithdrew",
      "type": "event"
    },
    {
      "constant": true,
      "inputs": [
        {
          "internalType": "address",
          "name": "",
          "type": "address"
        }
      ],
      "name": "admins",
      "outputs": [
        {
          "internalType": "bool",
          "name": "",
          "type": "bool"
        }
      ],
      "payable": false,
      "stateMutability": "view",
      "type": "function"
    },
    {
      "constant": true,
      "inputs": [],
      "name": "airdropID",
      "outputs": [
        {
          "internalType": "uint256",
          "name": "",
          "type": "uint256"
        }
      ],
      "payable": false,
      "stateMutability": "view",
      "type": "function"
    },
    {
      "constant": true,
      "inputs": [
        {
          "internalType": "address",
          "name": "",
          "type": "address"
        },
        {
          "internalType": "uint256",
          "name": "",
          "type": "uint256"
        }
      ],
      "name": "airdropPerUser",
      "outputs": [
        {
          "internalType": "uint256",
          "name": "airdropID",
          "type": "uint256"
        },
        {
          "internalType": "address",
          "name": "receiverAddress",
          "type": "address"
        },
        {
          "internalType": "address",
          "name": "tokenAddress",
          "type": "address"
        },
        {
          "internalType": "uint256",
          "name": "airdropAmount",
          "type": "uint256"
        },
        {
          "internalType": "uint256",
          "name": "timelock",
          "type": "uint256"
        }
      ],
      "payable": false,
      "stateMutability": "view",
      "type": "function"
    },
    {
      "constant": true,
      "inputs": [
        {
          "internalType": "uint256",
          "name": "",
          "type": "uint256"
        }
      ],
      "name": "airdropWithdrawals",
      "outputs": [
        {
          "internalType": "bool",
          "name": "",
          "type": "bool"
        }
      ],
      "payable": false,
      "stateMutability": "view",
      "type": "function"
    },
    {
      "constant": true,
      "inputs": [
        {
          "internalType": "uint256",
          "name": "",
          "type": "uint256"
        }
      ],
      "name": "airdrops",
      "outputs": [
        {
          "internalType": "uint256",
          "name": "airdropID",
          "type": "uint256"
        },
        {
          "internalType": "address",
          "name": "receiverAddress",
          "type": "address"
        },
        {
          "internalType": "address",
          "name": "tokenAddress",
          "type": "address"
        },
        {
          "internalType": "uint256",
          "name": "airdropAmount",
          "type": "uint256"
        },
        {
          "internalType": "uint256",
          "name": "timelock",
          "type": "uint256"
        }
      ],
      "payable": false,
      "stateMutability": "view",
      "type": "function"
    },
    {
      "constant": false,
      "inputs": [
        {
          "internalType": "address",
          "name": "_receiverAddress",
          "type": "address"
        },
        {
          "internalType": "address",
          "name": "_tokenAddress",
          "type": "address"
        },
        {
          "internalType": "uint256",
          "name": "_airdropAmount",
          "type": "uint256"
        },
        {
          "internalType": "uint256",
          "name": "_timelock",
          "type": "uint256"
        }
      ],
      "name": "addAirdrop",
      "outputs": [],
      "payable": false,
      "stateMutability": "nonpayable",
      "type": "function"
    },
    {
      "constant": true,
      "inputs": [
        {
          "internalType": "address",
          "name": "_receiver",
          "type": "address"
        }
      ],
      "name": "getAirdropLengthByUserAddress",
      "outputs": [
        {
          "internalType": "uint256",
          "name": "",
          "type": "uint256"
        }
      ],
      "payable": false,
      "stateMutability": "view",
      "type": "function"
    },
    {
      "constant": false,
      "inputs": [
        {
          "internalType": "uint256",
          "name": "_airdropID",
          "type": "uint256"
        }
      ],
      "name": "withdrawAirdrop",
      "outputs": [],
      "payable": false,
      "stateMutability": "nonpayable",
      "type": "function"
    },
    {
      "constant": false,
      "inputs": [
        {
          "internalType": "address",
          "name": "_admin",
          "type": "address"
        },
        {
          "internalType": "bool",
          "name": "_enable",
          "type": "bool"
        }
      ],
      "name": "updateAdmin",
      "outputs": [],
      "payable": false,
      "stateMutability": "nonpayable",
      "type": "function"
    }
  ],
  "bytecode": "0x6080604052600060045534801561001557600080fd5b5060016000803373ffffffffffffffffffffffffffffffffffffffff1673ffffffffffffffffffffffffffffffffffffffff16815260200190815260200160002060006101000a81548160ff021916908315150217905550610fa28061007c6000396000f3fe608060405234801561001057600080fd5b50600436106100935760003560e01c8063429b62e511610066578063429b62e51461018257806360db5082146101de578063670a6fd9146102945780636f5a8890146102e4578063c9086a8e146103ba57610093565b80630fa7dd961461009857806318ef13ac146100de57806322329e7e146100fc578063323beddf1461012a575b600080fd5b6100c4600480360360208110156100ae57600080fd5b8101908080359060200190929190505050610432565b604051808215151515815260200191505060405180910390f35b6100e6610452565b6040518082815260200191505060405180910390f35b6101286004803603602081101561011257600080fd5b8101908080359060200190929190505050610458565b005b61016c6004803603602081101561014057600080fd5b81019080803573ffffffffffffffffffffffffffffffffffffffff169060200190929190505050610866565b6040518082815260200191505060405180910390f35b6101c46004803603602081101561019857600080fd5b81019080803573ffffffffffffffffffffffffffffffffffffffff1690602001909291905050506108b2565b604051808215151515815260200191505060405180910390f35b61020a600480360360208110156101f457600080fd5b81019080803590602001909291905050506108d2565b604051808681526020018573ffffffffffffffffffffffffffffffffffffffff1673ffffffffffffffffffffffffffffffffffffffff1681526020018473ffffffffffffffffffffffffffffffffffffffff1673ffffffffffffffffffffffffffffffffffffffff1681526020018381526020018281526020019550505050505060405180910390f35b6102e2600480360360408110156102aa57600080fd5b81019080803573ffffffffffffffffffffffffffffffffffffffff169060200190929190803515159060200190929190505050610948565b005b610330600480360360408110156102fa57600080fd5b81019080803573ffffffffffffffffffffffffffffffffffffffff16906020019092919080359060200190929190505050610a67565b604051808681526020018573ffffffffffffffffffffffffffffffffffffffff1673ffffffffffffffffffffffffffffffffffffffff1681526020018473ffffffffffffffffffffffffffffffffffffffff1673ffffffffffffffffffffffffffffffffffffffff1681526020018381526020018281526020019550505050505060405180910390f35b610430600480360360808110156103d057600080fd5b81019080803573ffffffffffffffffffffffffffffffffffffffff169060200190929190803573ffffffffffffffffffffffffffffffffffffffff1690602001909291908035906020019092919080359060200190929190505050610af7565b005b60036020528060005260406000206000915054906101000a900460ff1681565b60045481565b60006002600083815260200190815260200160002090503373ffffffffffffffffffffffffffffffffffffffff168160010160009054906101000a900473ffffffffffffffffffffffffffffffffffffffff1673ffffffffffffffffffffffffffffffffffffffff1614610534576040517f08c379a000000000000000000000000000000000000000000000000000000000815260040180806020018281038252601f8152602001807f4f6e6c7920746f6b656e73206f776e65722063616e2077697468647261772e0081525060200191505060405180910390fd5b600015156003600084815260200190815260200160002060009054906101000a900460ff161515146105ce576040517f08c379a000000000000000000000000000000000000000000000000000000000815260040180806020018281038252601a8152602001807f546869732061697264726f70207761732077697468647265772e00000000000081525060200191505060405180910390fd5b4281600401541115610648576040517f08c379a000000000000000000000000000000000000000000000000000000000815260040180806020018281038252601f8152602001807f546869732061697264726f70206973206f6e2074696d65206c6f636b65642e0081525060200191505060405180910390fd5b8060020160009054906101000a900473ffffffffffffffffffffffffffffffffffffffff1673ffffffffffffffffffffffffffffffffffffffff1663a9059cbb3383600301546040518363ffffffff1660e01b8152600401808373ffffffffffffffffffffffffffffffffffffffff1673ffffffffffffffffffffffffffffffffffffffff16815260200182815260200192505050602060405180830381600087803b1580156106f757600080fd5b505af115801561070b573d6000803e3d6000fd5b505050506040513d602081101561072157600080fd5b81019080805190602001909291905050505060016003600084815260200190815260200160002060006101000a81548160ff0219169083151502179055507fd0f502fb2da23dabbd7887e28e883f6e51d00a4c14dcf424a3b0eb312db4b5a281600001548260010160009054906101000a900473ffffffffffffffffffffffffffffffffffffffff168360020160009054906101000a900473ffffffffffffffffffffffffffffffffffffffff1684600301548560040154604051808681526020018573ffffffffffffffffffffffffffffffffffffffff1673ffffffffffffffffffffffffffffffffffffffff1681526020018473ffffffffffffffffffffffffffffffffffffffff1673ffffffffffffffffffffffffffffffffffffffff1681526020018381526020018281526020019550505050505060405180910390a15050565b6000600160008373ffffffffffffffffffffffffffffffffffffffff1673ffffffffffffffffffffffffffffffffffffffff168152602001908152602001600020805490509050919050565b60006020528060005260406000206000915054906101000a900460ff1681565b60026020528060005260406000206000915090508060000154908060010160009054906101000a900473ffffffffffffffffffffffffffffffffffffffff16908060020160009054906101000a900473ffffffffffffffffffffffffffffffffffffffff16908060030154908060040154905085565b600115156000803373ffffffffffffffffffffffffffffffffffffffff1673ffffffffffffffffffffffffffffffffffffffff16815260200190815260200160002060009054906101000a900460ff16151514610a0d576040517f08c379a000000000000000000000000000000000000000000000000000000000815260040180806020018281038252601d8152602001807f546869732061646472657373206973206e6f7420616e2061646d696e2e00000081525060200191505060405180910390fd5b806000808473ffffffffffffffffffffffffffffffffffffffff1673ffffffffffffffffffffffffffffffffffffffff16815260200190815260200160002060006101000a81548160ff0219169083151502179055505050565b60016020528160005260406000208181548110610a8057fe5b9060005260206000209060050201600091509150508060000154908060010160009054906101000a900473ffffffffffffffffffffffffffffffffffffffff16908060020160009054906101000a900473ffffffffffffffffffffffffffffffffffffffff16908060030154908060040154905085565b600115156000803373ffffffffffffffffffffffffffffffffffffffff1673ffffffffffffffffffffffffffffffffffffffff16815260200190815260200160002060009054906101000a900460ff16151514610bbc576040517f08c379a000000000000000000000000000000000000000000000000000000000815260040180806020018281038252601d8152602001807f546869732061646472657373206973206e6f7420616e2061646d696e2e00000081525060200191505060405180910390fd5b6001600460008282540192505081905550600160008573ffffffffffffffffffffffffffffffffffffffff1673ffffffffffffffffffffffffffffffffffffffff1681526020019081526020016000206040518060a0016040528060045481526020018673ffffffffffffffffffffffffffffffffffffffff1681526020018573ffffffffffffffffffffffffffffffffffffffff16815260200184815260200183815250908060018154018082558091505090600182039060005260206000209060050201600090919290919091506000820151816000015560208201518160010160006101000a81548173ffffffffffffffffffffffffffffffffffffffff021916908373ffffffffffffffffffffffffffffffffffffffff16021790555060408201518160020160006101000a81548173ffffffffffffffffffffffffffffffffffffffff021916908373ffffffffffffffffffffffffffffffffffffffff16021790555060608201518160030155608082015181600401555050506040518060a0016040528060045481526020018573ffffffffffffffffffffffffffffffffffffffff1681526020018473ffffffffffffffffffffffffffffffffffffffff168152602001838152602001828152506002600060045481526020019081526020016000206000820151816000015560208201518160010160006101000a81548173ffffffffffffffffffffffffffffffffffffffff021916908373ffffffffffffffffffffffffffffffffffffffff16021790555060408201518160020160006101000a81548173ffffffffffffffffffffffffffffffffffffffff021916908373ffffffffffffffffffffffffffffffffffffffff1602179055506060820151816003015560808201518160040155905050600060036000600454815260200190815260200160002060006101000a81548160ff0219169083151502179055507f0472e88068b4751f95d193e942d63414f2f9e5c26804cfa7db88770bc8ac63dd6004548585858533604051808781526020018673ffffffffffffffffffffffffffffffffffffffff1673ffffffffffffffffffffffffffffffffffffffff1681526020018573ffffffffffffffffffffffffffffffffffffffff1673ffffffffffffffffffffffffffffffffffffffff1681526020018481526020018381526020018273ffffffffffffffffffffffffffffffffffffffff1673ffffffffffffffffffffffffffffffffffffffff168152602001965050505050505060405180910390a15050505056fea265627a7a723158204fbe54566cc145d587f443f66e5c1b79ca08ae13eaa9dc22683c815f4671aaee64736f6c634300050c0032",
  "source": "pragma solidity 0.5.12;\nimport \"openzeppelin-solidity/contracts/token/ERC20/ERC20Mintable.sol\";\n\ncontract Airdrop {\n  mapping (address => bool) public admins;\n  // receiverAddress => airdrop details\n  mapping (address => AirdropDetail[]) public airdropPerUser;\n  // airdropID => airdrop detail\n  mapping (uint256 => AirdropDetail) public airdrops;\n  // airdropID => isWithdraw\n  mapping (uint256 => bool) public airdropWithdrawals;\n  uint256 public airdropID = 0;\n\n  event AirdropWithdrew (uint256 airdropID, address receiver, address tokenAddress, uint256 airdropAmount, uint256 timelock);\n  event AirdropAdded (uint256 airdropID, address receiver, address tokenAddress, uint256 airdropAmount, uint256 timelock, address adder);\n\n  struct AirdropDetail {\n    uint256 airdropID;\n    address receiverAddress;\n    address tokenAddress;\n    uint256 airdropAmount;\n    uint256 timelock;\n  }\n\n  constructor () public {\n    admins[msg.sender] = true;\n  }\n\n  function addAirdrop(address _receiverAddress, address _tokenAddress, uint256 _airdropAmount, uint256 _timelock) public onlyAdmin {\n    airdropID += 1;\n    airdropPerUser[_receiverAddress].push(AirdropDetail(airdropID, _receiverAddress, _tokenAddress, _airdropAmount, _timelock));\n    airdrops[airdropID] = AirdropDetail(airdropID, _receiverAddress, _tokenAddress, _airdropAmount, _timelock);\n    airdropWithdrawals[airdropID] = false;\n    emit AirdropAdded(airdropID, _receiverAddress, _tokenAddress, _airdropAmount, _timelock, msg.sender);\n  }\n\n  function getAirdropLengthByUserAddress(address _receiver) public view returns (uint256) {\n    return airdropPerUser[_receiver].length;\n  }\n\n  function withdrawAirdrop(uint256 _airdropID) public {\n    AirdropDetail storage selectedAirdrop = airdrops[_airdropID];\n    require(selectedAirdrop.receiverAddress == msg.sender, \"Only tokens owner can withdraw.\");\n    require(airdropWithdrawals[_airdropID] == false, \"This airdrop was withdrew.\");\n    require(selectedAirdrop.timelock <= block.timestamp, \"This airdrop is on time locked.\");\n    ERC20Mintable(selectedAirdrop.tokenAddress).transfer(msg.sender, selectedAirdrop.airdropAmount);\n    airdropWithdrawals[_airdropID] = true;\n    emit AirdropWithdrew(selectedAirdrop.airdropID, selectedAirdrop.receiverAddress, selectedAirdrop.tokenAddress, selectedAirdrop.airdropAmount, selectedAirdrop.timelock);\n  }\n\n  function updateAdmin(address _admin, bool _enable) public onlyAdmin {\n    admins[_admin] = _enable;\n  }\n\n  modifier onlyAdmin() {\n    require(admins[msg.sender] == true, \"This address is not an admin.\");\n    _;\n  }\n}",
  "sourcePath": "/Users/loom2/Documents/mimi/loomx/git/cleverflare/smart_contracts/loom/contracts/Airdrop.sol",
  "compiler": {
    "name": "solc",
    "version": "0.5.12+commit.7709ece9.Emscripten.clang"
  },
  "schemaVersion": "3.0.19",
  "updatedAt": "2019-11-25T04:51:36.393Z",
  "networkType": "ethereum",
  "devdoc": {
    "methods": {}
  },
  "userdoc": {
    "methods": {}
  }
}