{
  "contractName": "BinanceToken",
  "abi": [
    {
      "constant": true,
      "inputs": [],
      "name": "mintingFinished",
      "outputs": [
        {
          "name": "",
          "type": "bool"
        }
      ],
      "payable": false,
      "stateMutability": "view",
      "type": "function"
    },
    {
      "constant": true,
      "inputs": [],
      "name": "name",
      "outputs": [
        {
          "name": "",
          "type": "string"
        }
      ],
      "payable": false,
      "stateMutability": "view",
      "type": "function"
    },
    {
      "constant": false,
      "inputs": [
        {
          "name": "_spender",
          "type": "address"
        },
        {
          "name": "_value",
          "type": "uint256"
        }
      ],
      "name": "approve",
      "outputs": [
        {
          "name": "",
          "type": "bool"
        }
      ],
      "payable": false,
      "stateMutability": "nonpayable",
      "type": "function"
    },
    {
      "constant": true,
      "inputs": [],
      "name": "gateway",
      "outputs": [
        {
          "name": "",
          "type": "address"
        }
      ],
      "payable": false,
      "stateMutability": "view",
      "type": "function"
    },
    {
      "constant": true,
      "inputs": [],
      "name": "totalSupply",
      "outputs": [
        {
          "name": "",
          "type": "uint256"
        }
      ],
      "payable": false,
      "stateMutability": "view",
      "type": "function"
    },
    {
      "constant": false,
      "inputs": [
        {
          "name": "_from",
          "type": "address"
        },
        {
          "name": "_to",
          "type": "address"
        },
        {
          "name": "_value",
          "type": "uint256"
        }
      ],
      "name": "transferFrom",
      "outputs": [
        {
          "name": "",
          "type": "bool"
        }
      ],
      "payable": false,
      "stateMutability": "nonpayable",
      "type": "function"
    },
    {
      "constant": true,
      "inputs": [],
      "name": "INITIAL_SUPPLY",
      "outputs": [
        {
          "name": "",
          "type": "uint256"
        }
      ],
      "payable": false,
      "stateMutability": "view",
      "type": "function"
    },
    {
      "constant": true,
      "inputs": [],
      "name": "decimals",
      "outputs": [
        {
          "name": "",
          "type": "uint8"
        }
      ],
      "payable": false,
      "stateMutability": "view",
      "type": "function"
    },
    {
      "constant": false,
      "inputs": [
        {
          "name": "_spender",
          "type": "address"
        },
        {
          "name": "_subtractedValue",
          "type": "uint256"
        }
      ],
      "name": "decreaseApproval",
      "outputs": [
        {
          "name": "",
          "type": "bool"
        }
      ],
      "payable": false,
      "stateMutability": "nonpayable",
      "type": "function"
    },
    {
      "constant": true,
      "inputs": [
        {
          "name": "_owner",
          "type": "address"
        }
      ],
      "name": "balanceOf",
      "outputs": [
        {
          "name": "",
          "type": "uint256"
        }
      ],
      "payable": false,
      "stateMutability": "view",
      "type": "function"
    },
    {
      "constant": false,
      "inputs": [],
      "name": "renounceOwnership",
      "outputs": [],
      "payable": false,
      "stateMutability": "nonpayable",
      "type": "function"
    },
    {
      "constant": false,
      "inputs": [],
      "name": "finishMinting",
      "outputs": [
        {
          "name": "",
          "type": "bool"
        }
      ],
      "payable": false,
      "stateMutability": "nonpayable",
      "type": "function"
    },
    {
      "constant": true,
      "inputs": [],
      "name": "owner",
      "outputs": [
        {
          "name": "",
          "type": "address"
        }
      ],
      "payable": false,
      "stateMutability": "view",
      "type": "function"
    },
    {
      "constant": true,
      "inputs": [],
      "name": "symbol",
      "outputs": [
        {
          "name": "",
          "type": "string"
        }
      ],
      "payable": false,
      "stateMutability": "view",
      "type": "function"
    },
    {
      "constant": false,
      "inputs": [
        {
          "name": "_to",
          "type": "address"
        },
        {
          "name": "_value",
          "type": "uint256"
        }
      ],
      "name": "transfer",
      "outputs": [
        {
          "name": "",
          "type": "bool"
        }
      ],
      "payable": false,
      "stateMutability": "nonpayable",
      "type": "function"
    },
    {
      "constant": false,
      "inputs": [
        {
          "name": "_spender",
          "type": "address"
        },
        {
          "name": "_addedValue",
          "type": "uint256"
        }
      ],
      "name": "increaseApproval",
      "outputs": [
        {
          "name": "",
          "type": "bool"
        }
      ],
      "payable": false,
      "stateMutability": "nonpayable",
      "type": "function"
    },
    {
      "constant": true,
      "inputs": [
        {
          "name": "_owner",
          "type": "address"
        },
        {
          "name": "_spender",
          "type": "address"
        }
      ],
      "name": "allowance",
      "outputs": [
        {
          "name": "",
          "type": "uint256"
        }
      ],
      "payable": false,
      "stateMutability": "view",
      "type": "function"
    },
    {
      "constant": false,
      "inputs": [
        {
          "name": "_newOwner",
          "type": "address"
        }
      ],
      "name": "transferOwnership",
      "outputs": [],
      "payable": false,
      "stateMutability": "nonpayable",
      "type": "function"
    },
    {
      "inputs": [
        {
          "name": "_gateway",
          "type": "address"
        }
      ],
      "payable": false,
      "stateMutability": "nonpayable",
      "type": "constructor"
    },
    {
      "anonymous": false,
      "inputs": [
        {
          "indexed": true,
          "name": "to",
          "type": "address"
        },
        {
          "indexed": false,
          "name": "amount",
          "type": "uint256"
        }
      ],
      "name": "Mint",
      "type": "event"
    },
    {
      "anonymous": false,
      "inputs": [],
      "name": "MintFinished",
      "type": "event"
    },
    {
      "anonymous": false,
      "inputs": [
        {
          "indexed": true,
          "name": "previousOwner",
          "type": "address"
        }
      ],
      "name": "OwnershipRenounced",
      "type": "event"
    },
    {
      "anonymous": false,
      "inputs": [
        {
          "indexed": true,
          "name": "previousOwner",
          "type": "address"
        },
        {
          "indexed": true,
          "name": "newOwner",
          "type": "address"
        }
      ],
      "name": "OwnershipTransferred",
      "type": "event"
    },
    {
      "anonymous": false,
      "inputs": [
        {
          "indexed": true,
          "name": "owner",
          "type": "address"
        },
        {
          "indexed": true,
          "name": "spender",
          "type": "address"
        },
        {
          "indexed": false,
          "name": "value",
          "type": "uint256"
        }
      ],
      "name": "Approval",
      "type": "event"
    },
    {
      "anonymous": false,
      "inputs": [
        {
          "indexed": true,
          "name": "from",
          "type": "address"
        },
        {
          "indexed": true,
          "name": "to",
          "type": "address"
        },
        {
          "indexed": false,
          "name": "value",
          "type": "uint256"
        }
      ],
      "name": "Transfer",
      "type": "event"
    },
    {
      "constant": false,
      "inputs": [
        {
          "name": "_amount",
          "type": "uint256"
        }
      ],
      "name": "mintToGateway",
      "outputs": [],
      "payable": false,
      "stateMutability": "nonpayable",
      "type": "function"
    },
    {
      "constant": false,
      "inputs": [
        {
          "name": "_to",
          "type": "address"
        },
        {
          "name": "_amount",
          "type": "uint256"
        }
      ],
      "name": "mint",
      "outputs": [
        {
          "name": "",
          "type": "bool"
        }
      ],
      "payable": false,
      "stateMutability": "nonpayable",
      "type": "function"
    },
    {
      "constant": false,
      "inputs": [
        {
          "name": "newValidator",
          "type": "address"
        }
      ],
      "name": "addValidator",
      "outputs": [],
      "payable": false,
      "stateMutability": "nonpayable",
      "type": "function"
    }
  ],
  "bytecode": "0x6003805460a060020a60ff021916905560c0604052600c60808190527f42696e616e6365546f6b656e000000000000000000000000000000000000000060a090815261004e916005919061011c565b506040805180820190915260048082527f424e544b0000000000000000000000000000000000000000000000000000000060209092019182526100939160069161011c565b506103e86007553480156100a657600080fd5b506040516020806200114583398101604090815290516003805433600160a060020a0319918216811790925560048054909116600160a060020a0390931692909217909155600090815260086020908152828220805460ff191660019081179091556007549081905590829052919020556101b7565b828054600181600116156101000203166002900490600052602060002090601f016020900481019282601f1061015d57805160ff191683800117855561018a565b8280016001018555821561018a579182015b8281111561018a57825182559160200191906001019061016f565b5061019692915061019a565b5090565b6101b491905b8082111561019657600081556001016101a0565b90565b610f7e80620001c76000396000f30060806040526004361061011c5763ffffffff7c010000000000000000000000000000000000000000000000000000000060003504166305d2035b811461012157806306fdde031461014a578063095ea7b3146101d4578063116191b6146101f857806318160ddd1461022957806323b872dd146102505780632ff2e9dc1461027a578063313ce5671461028f57806340c10f19146102ba5780634d238c8e146102de578063544297f514610301578063661884631461031957806370a082311461033d578063715018a61461035e5780637d64bcb4146103735780638da5cb5b1461038857806395d89b411461039d578063a9059cbb146103b2578063d73dd623146103d6578063dd62ed3e146103fa578063f2fde38b14610421575b600080fd5b34801561012d57600080fd5b50610136610442565b604080519115158252519081900360200190f35b34801561015657600080fd5b5061015f610463565b6040805160208082528351818301528351919283929083019185019080838360005b83811015610199578181015183820152602001610181565b50505050905090810190601f1680156101c65780820380516001836020036101000a031916815260200191505b509250505060405180910390f35b3480156101e057600080fd5b50610136600160a060020a03600435166024356104f1565b34801561020457600080fd5b5061020d610557565b60408051600160a060020a039092168252519081900360200190f35b34801561023557600080fd5b5061023e610566565b60408051918252519081900360200190f35b34801561025c57600080fd5b50610136600160a060020a036004358116906024351660443561056c565b34801561028657600080fd5b5061023e6106e1565b34801561029b57600080fd5b506102a46106e7565b6040805160ff9092168252519081900360200190f35b3480156102c657600080fd5b50610136600160a060020a03600435166024356106ec565b3480156102ea57600080fd5b506102ff600160a060020a0360043516610896565b005b34801561030d57600080fd5b506102ff600435610963565b34801561032557600080fd5b50610136600160a060020a0360043516602435610a61565b34801561034957600080fd5b5061023e600160a060020a0360043516610b50565b34801561036a57600080fd5b506102ff610b6b565b34801561037f57600080fd5b50610136610bd9565b34801561039457600080fd5b5061020d610c7f565b3480156103a957600080fd5b5061015f610c8e565b3480156103be57600080fd5b50610136600160a060020a0360043516602435610ce9565b3480156103e257600080fd5b50610136600160a060020a0360043516602435610dc8565b34801561040657600080fd5b5061023e600160a060020a0360043581169060243516610e61565b34801561042d57600080fd5b506102ff600160a060020a0360043516610e8c565b60035474010000000000000000000000000000000000000000900460ff1681565b6005805460408051602060026001851615610100026000190190941693909304601f810184900484028201840190925281815292918301828280156104e95780601f106104be576101008083540402835291602001916104e9565b820191906000526020600020905b8154815290600101906020018083116104cc57829003601f168201915b505050505081565b336000818152600260209081526040808320600160a060020a038716808552908352818420869055815186815291519394909390927f8c5be1e5ebec7d5bd14f71427d1e84f3dd0314c0f7b2291e5b200ac8c7c3b925928290030190a350600192915050565b600454600160a060020a031681565b60015490565b600160a060020a03831660009081526020819052604081205482111561059157600080fd5b600160a060020a03841660009081526002602090815260408083203384529091529020548211156105c157600080fd5b600160a060020a03831615156105d657600080fd5b600160a060020a0384166000908152602081905260409020546105ff908363ffffffff610eaf16565b600160a060020a038086166000908152602081905260408082209390935590851681522054610634908363ffffffff610ec116565b600160a060020a03808516600090815260208181526040808320949094559187168152600282528281203382529091522054610676908363ffffffff610eaf16565b600160a060020a03808616600081815260026020908152604080832033845282529182902094909455805186815290519287169391927fddf252ad1be2c89b69c2b068fc378daa952ba7f163c4a11628f55a4df523b3ef929181900390910190a35060019392505050565b60075481565b600081565b3360009081526008602052604081205460ff16151560011461079557604080517f08c379a000000000000000000000000000000000000000000000000000000000815260206004820152603260248201527f596f7520646f6e27742068617665207065726d697373696f6e20746f2061637460448201527f696f6e20776974682063617264207061636b0000000000000000000000000000606482015290519081900360840190fd5b60035474010000000000000000000000000000000000000000900460ff16156107bd57600080fd5b6001546107d0908363ffffffff610ec116565b600155600160a060020a0383166000908152602081905260409020546107fc908363ffffffff610ec116565b600160a060020a03841660008181526020818152604091829020939093558051858152905191927f0f6798a560793a54c3bcfe86a93cde1e73087d944c0ea20544137d412139688592918290030190a2604080518381529051600160a060020a038516916000917fddf252ad1be2c89b69c2b068fc378daa952ba7f163c4a11628f55a4df523b3ef9181900360200190a350600192915050565b3360009081526008602052604090205460ff16151560011461093f57604080517f08c379a000000000000000000000000000000000000000000000000000000000815260206004820152603260248201527f596f7520646f6e27742068617665207065726d697373696f6e20746f2061637460448201527f696f6e20776974682063617264207061636b0000000000000000000000000000606482015290519081900360840190fd5b600160a060020a03166000908152600860205260409020805460ff19166001179055565b600454600160a060020a03163314610a0257604080517f08c379a000000000000000000000000000000000000000000000000000000000815260206004820152602360248201527f6f6e6c7920746865206761746577617920697320616c6c6f77656420746f206d60448201527f696e740000000000000000000000000000000000000000000000000000000000606482015290519081900360840190fd5b600154610a15908263ffffffff610ec116565b600155600454600160a060020a0316600090815260208190526040902054610a43908263ffffffff610ec116565b600454600160a060020a031660009081526020819052604090205550565b336000908152600260209081526040808320600160a060020a0386168452909152812054808310610ab557336000908152600260209081526040808320600160a060020a0388168452909152812055610aea565b610ac5818463ffffffff610eaf16565b336000908152600260209081526040808320600160a060020a03891684529091529020555b336000818152600260209081526040808320600160a060020a0389168085529083529281902054815190815290519293927f8c5be1e5ebec7d5bd14f71427d1e84f3dd0314c0f7b2291e5b200ac8c7c3b925929181900390910190a35060019392505050565b600160a060020a031660009081526020819052604090205490565b600354600160a060020a03163314610b8257600080fd5b600354604051600160a060020a03909116907ff8df31144d9c2f0f6b59d69b8b98abd5459d07f2742c4df920b25aae33c6482090600090a26003805473ffffffffffffffffffffffffffffffffffffffff19169055565b600354600090600160a060020a03163314610bf357600080fd5b60035474010000000000000000000000000000000000000000900460ff1615610c1b57600080fd5b6003805474ff00000000000000000000000000000000000000001916740100000000000000000000000000000000000000001790556040517fae5184fba832cb2b1f702aca6117b8d265eaf03ad33eb133f19dde0f5920fa0890600090a150600190565b600354600160a060020a031681565b6006805460408051602060026001851615610100026000190190941693909304601f810184900484028201840190925281815292918301828280156104e95780601f106104be576101008083540402835291602001916104e9565b33600090815260208190526040812054821115610d0557600080fd5b600160a060020a0383161515610d1a57600080fd5b33600090815260208190526040902054610d3a908363ffffffff610eaf16565b3360009081526020819052604080822092909255600160a060020a03851681522054610d6c908363ffffffff610ec116565b600160a060020a038416600081815260208181526040918290209390935580518581529051919233927fddf252ad1be2c89b69c2b068fc378daa952ba7f163c4a11628f55a4df523b3ef9281900390910190a350600192915050565b336000908152600260209081526040808320600160a060020a0386168452909152812054610dfc908363ffffffff610ec116565b336000818152600260209081526040808320600160a060020a0389168085529083529281902085905580519485525191937f8c5be1e5ebec7d5bd14f71427d1e84f3dd0314c0f7b2291e5b200ac8c7c3b925929081900390910190a350600192915050565b600160a060020a03918216600090815260026020908152604080832093909416825291909152205490565b600354600160a060020a03163314610ea357600080fd5b610eac81610ed4565b50565b600082821115610ebb57fe5b50900390565b81810182811015610ece57fe5b92915050565b600160a060020a0381161515610ee957600080fd5b600354604051600160a060020a038084169216907f8be0079c531659141344cd1fd0a4f28419497f9722a3daafe3b4186f6b6457e090600090a36003805473ffffffffffffffffffffffffffffffffffffffff1916600160a060020a03929092169190911790555600a165627a7a72305820a810d81d2e5aee5ed18a86b22470af67ea3940e3b271408fe902b61a2e0a24a60029",
  "source": "pragma solidity 0.4.24;\n\nimport 'openzeppelin-solidity/contracts/token/ERC20/MintableToken.sol';\n\ncontract BinanceToken is MintableToken {\n    address public gateway;\n    string public name = \"BinanceToken\";\n    string public symbol = \"BNTK\";\n    uint8 public constant decimals = 0;\n    uint256 public INITIAL_SUPPLY = 1000 * (10 ** uint256(decimals));\n    mapping (address => bool) validator;\n\n    constructor(address _gateway) public {\n        gateway = _gateway;\n        validator[msg.sender] = true;\n        totalSupply_ = INITIAL_SUPPLY;\n        balances[msg.sender] = INITIAL_SUPPLY;\n    }\n\n    function mintToGateway(uint256 _amount) public {\n        require(msg.sender == gateway, \"only the gateway is allowed to mint\");\n        totalSupply_ = totalSupply_.add(_amount);\n        balances[gateway] = balances[gateway].add(_amount);\n    }\n\n    // Overloaded `mint` function of Mintable token for onlyValidator\n    function mint(address _to, uint256 _amount) onlyValidator canMint public returns (bool) {\n        totalSupply_ = totalSupply_.add(_amount);\n        balances[_to] = balances[_to].add(_amount);\n        emit Mint(_to, _amount);\n        emit Transfer(address(0), _to, _amount);\n        return true;\n    }\n\n    function addValidator(address newValidator) onlyValidator public {\n        validator[newValidator] = true;\n    }\n\n    modifier onlyValidator() {\n        require(validator[msg.sender] == true, 'You don\\'t have permission to action with card pack');\n        _;\n    }\n\n}\n",
  "sourcePath": "/Users/loom1/Loom/CardFaucet/contracts/Core/BinanceToken.sol",
  "compiler": {
    "name": "solc",
    "version": "0.4.24+commit.e67f0147.Emscripten.clang"
  },
  "schemaVersion": "2.0.1",
  "updatedAt": "2019-02-13T10:51:33.382Z"
}