{
  "contractName": "BoosterPack",
  "abi": [
    {
      "constant": true,
      "inputs": [],
      "name": "mintingFinished",
      "outputs": [
        {
          "name": "",
          "type": "bool"
        }
      ],
      "payable": false,
      "stateMutability": "view",
      "type": "function"
    },
    {
      "constant": true,
      "inputs": [],
      "name": "name",
      "outputs": [
        {
          "name": "",
          "type": "string"
        }
      ],
      "payable": false,
      "stateMutability": "view",
      "type": "function"
    },
    {
      "constant": false,
      "inputs": [
        {
          "name": "_spender",
          "type": "address"
        },
        {
          "name": "_value",
          "type": "uint256"
        }
      ],
      "name": "approve",
      "outputs": [
        {
          "name": "",
          "type": "bool"
        }
      ],
      "payable": false,
      "stateMutability": "nonpayable",
      "type": "function"
    },
    {
      "constant": true,
      "inputs": [],
      "name": "totalSupply",
      "outputs": [
        {
          "name": "",
          "type": "uint256"
        }
      ],
      "payable": false,
      "stateMutability": "view",
      "type": "function"
    },
    {
      "constant": false,
      "inputs": [
        {
          "name": "_from",
          "type": "address"
        },
        {
          "name": "_to",
          "type": "address"
        },
        {
          "name": "_value",
          "type": "uint256"
        }
      ],
      "name": "transferFrom",
      "outputs": [
        {
          "name": "",
          "type": "bool"
        }
      ],
      "payable": false,
      "stateMutability": "nonpayable",
      "type": "function"
    },
    {
      "constant": true,
      "inputs": [],
      "name": "INITIAL_SUPPLY",
      "outputs": [
        {
          "name": "",
          "type": "uint256"
        }
      ],
      "payable": false,
      "stateMutability": "view",
      "type": "function"
    },
    {
      "constant": true,
      "inputs": [],
      "name": "decimals",
      "outputs": [
        {
          "name": "",
          "type": "uint8"
        }
      ],
      "payable": false,
      "stateMutability": "view",
      "type": "function"
    },
    {
      "constant": false,
      "inputs": [
        {
          "name": "_spender",
          "type": "address"
        },
        {
          "name": "_subtractedValue",
          "type": "uint256"
        }
      ],
      "name": "decreaseApproval",
      "outputs": [
        {
          "name": "",
          "type": "bool"
        }
      ],
      "payable": false,
      "stateMutability": "nonpayable",
      "type": "function"
    },
    {
      "constant": true,
      "inputs": [
        {
          "name": "_owner",
          "type": "address"
        }
      ],
      "name": "balanceOf",
      "outputs": [
        {
          "name": "",
          "type": "uint256"
        }
      ],
      "payable": false,
      "stateMutability": "view",
      "type": "function"
    },
    {
      "constant": false,
      "inputs": [],
      "name": "renounceOwnership",
      "outputs": [],
      "payable": false,
      "stateMutability": "nonpayable",
      "type": "function"
    },
    {
      "constant": false,
      "inputs": [],
      "name": "finishMinting",
      "outputs": [
        {
          "name": "",
          "type": "bool"
        }
      ],
      "payable": false,
      "stateMutability": "nonpayable",
      "type": "function"
    },
    {
      "constant": true,
      "inputs": [],
      "name": "owner",
      "outputs": [
        {
          "name": "",
          "type": "address"
        }
      ],
      "payable": false,
      "stateMutability": "view",
      "type": "function"
    },
    {
      "constant": true,
      "inputs": [],
      "name": "symbol",
      "outputs": [
        {
          "name": "",
          "type": "string"
        }
      ],
      "payable": false,
      "stateMutability": "view",
      "type": "function"
    },
    {
      "constant": false,
      "inputs": [
        {
          "name": "_to",
          "type": "address"
        },
        {
          "name": "_value",
          "type": "uint256"
        }
      ],
      "name": "transfer",
      "outputs": [
        {
          "name": "",
          "type": "bool"
        }
      ],
      "payable": false,
      "stateMutability": "nonpayable",
      "type": "function"
    },
    {
      "constant": false,
      "inputs": [
        {
          "name": "_spender",
          "type": "address"
        },
        {
          "name": "_addedValue",
          "type": "uint256"
        }
      ],
      "name": "increaseApproval",
      "outputs": [
        {
          "name": "",
          "type": "bool"
        }
      ],
      "payable": false,
      "stateMutability": "nonpayable",
      "type": "function"
    },
    {
      "constant": true,
      "inputs": [
        {
          "name": "_owner",
          "type": "address"
        },
        {
          "name": "_spender",
          "type": "address"
        }
      ],
      "name": "allowance",
      "outputs": [
        {
          "name": "",
          "type": "uint256"
        }
      ],
      "payable": false,
      "stateMutability": "view",
      "type": "function"
    },
    {
      "constant": false,
      "inputs": [
        {
          "name": "_newOwner",
          "type": "address"
        }
      ],
      "name": "transferOwnership",
      "outputs": [],
      "payable": false,
      "stateMutability": "nonpayable",
      "type": "function"
    },
    {
      "inputs": [
        {
          "name": "_name",
          "type": "string"
        },
        {
          "name": "_symbol",
          "type": "string"
        }
      ],
      "payable": false,
      "stateMutability": "nonpayable",
      "type": "constructor"
    },
    {
      "anonymous": false,
      "inputs": [
        {
          "indexed": true,
          "name": "to",
          "type": "address"
        },
        {
          "indexed": false,
          "name": "amount",
          "type": "uint256"
        }
      ],
      "name": "Mint",
      "type": "event"
    },
    {
      "anonymous": false,
      "inputs": [],
      "name": "MintFinished",
      "type": "event"
    },
    {
      "anonymous": false,
      "inputs": [
        {
          "indexed": true,
          "name": "previousOwner",
          "type": "address"
        }
      ],
      "name": "OwnershipRenounced",
      "type": "event"
    },
    {
      "anonymous": false,
      "inputs": [
        {
          "indexed": true,
          "name": "previousOwner",
          "type": "address"
        },
        {
          "indexed": true,
          "name": "newOwner",
          "type": "address"
        }
      ],
      "name": "OwnershipTransferred",
      "type": "event"
    },
    {
      "anonymous": false,
      "inputs": [
        {
          "indexed": true,
          "name": "owner",
          "type": "address"
        },
        {
          "indexed": true,
          "name": "spender",
          "type": "address"
        },
        {
          "indexed": false,
          "name": "value",
          "type": "uint256"
        }
      ],
      "name": "Approval",
      "type": "event"
    },
    {
      "anonymous": false,
      "inputs": [
        {
          "indexed": true,
          "name": "from",
          "type": "address"
        },
        {
          "indexed": true,
          "name": "to",
          "type": "address"
        },
        {
          "indexed": false,
          "name": "value",
          "type": "uint256"
        }
      ],
      "name": "Transfer",
      "type": "event"
    },
    {
      "constant": false,
      "inputs": [
        {
          "name": "_to",
          "type": "address"
        },
        {
          "name": "_amount",
          "type": "uint256"
        }
      ],
      "name": "mint",
      "outputs": [
        {
          "name": "",
          "type": "bool"
        }
      ],
      "payable": false,
      "stateMutability": "nonpayable",
      "type": "function"
    },
    {
      "constant": false,
      "inputs": [
        {
          "name": "newValidator",
          "type": "address"
        }
      ],
      "name": "addValidator",
      "outputs": [],
      "payable": false,
      "stateMutability": "nonpayable",
      "type": "function"
    }
  ],
  "bytecode": "0x60806040526003805460a060020a60ff02191690556103e860065534801561002657600080fd5b50604051610f94380380610f94833981016040908152815160208084015160038054600160a060020a03191633908117909155600090815260078352848120805460ff1916600190811790915560065490819055818452949020939093559083018051909392909201916100a091600491908501906100bc565b5080516100b49060059060208401906100bc565b505050610157565b828054600181600116156101000203166002900490600052602060002090601f016020900481019282601f106100fd57805160ff191683800117855561012a565b8280016001018555821561012a579182015b8281111561012a57825182559160200191906001019061010f565b5061013692915061013a565b5090565b61015491905b808211156101365760008155600101610140565b90565b610e2e806101666000396000f3006080604052600436106101065763ffffffff7c010000000000000000000000000000000000000000000000000000000060003504166305d2035b811461010b57806306fdde0314610134578063095ea7b3146101be57806318160ddd146101e257806323b872dd146102095780632ff2e9dc14610233578063313ce5671461024857806340c10f19146102735780634d238c8e1461029757806366188463146102ba57806370a08231146102de578063715018a6146102ff5780637d64bcb4146103145780638da5cb5b1461032957806395d89b411461035a578063a9059cbb1461036f578063d73dd62314610393578063dd62ed3e146103b7578063f2fde38b146103de575b600080fd5b34801561011757600080fd5b506101206103ff565b604080519115158252519081900360200190f35b34801561014057600080fd5b50610149610420565b6040805160208082528351818301528351919283929083019185019080838360005b8381101561018357818101518382015260200161016b565b50505050905090810190601f1680156101b05780820380516001836020036101000a031916815260200191505b509250505060405180910390f35b3480156101ca57600080fd5b50610120600160a060020a03600435166024356104ae565b3480156101ee57600080fd5b506101f7610514565b60408051918252519081900360200190f35b34801561021557600080fd5b50610120600160a060020a036004358116906024351660443561051a565b34801561023f57600080fd5b506101f761068f565b34801561025457600080fd5b5061025d610695565b6040805160ff9092168252519081900360200190f35b34801561027f57600080fd5b50610120600160a060020a036004351660243561069a565b3480156102a357600080fd5b506102b8600160a060020a0360043516610844565b005b3480156102c657600080fd5b50610120600160a060020a0360043516602435610911565b3480156102ea57600080fd5b506101f7600160a060020a0360043516610a00565b34801561030b57600080fd5b506102b8610a1b565b34801561032057600080fd5b50610120610a89565b34801561033557600080fd5b5061033e610b2f565b60408051600160a060020a039092168252519081900360200190f35b34801561036657600080fd5b50610149610b3e565b34801561037b57600080fd5b50610120600160a060020a0360043516602435610b99565b34801561039f57600080fd5b50610120600160a060020a0360043516602435610c78565b3480156103c357600080fd5b506101f7600160a060020a0360043581169060243516610d11565b3480156103ea57600080fd5b506102b8600160a060020a0360043516610d3c565b60035474010000000000000000000000000000000000000000900460ff1681565b6004805460408051602060026001851615610100026000190190941693909304601f810184900484028201840190925281815292918301828280156104a65780601f1061047b576101008083540402835291602001916104a6565b820191906000526020600020905b81548152906001019060200180831161048957829003601f168201915b505050505081565b336000818152600260209081526040808320600160a060020a038716808552908352818420869055815186815291519394909390927f8c5be1e5ebec7d5bd14f71427d1e84f3dd0314c0f7b2291e5b200ac8c7c3b925928290030190a350600192915050565b60015490565b600160a060020a03831660009081526020819052604081205482111561053f57600080fd5b600160a060020a038416600090815260026020908152604080832033845290915290205482111561056f57600080fd5b600160a060020a038316151561058457600080fd5b600160a060020a0384166000908152602081905260409020546105ad908363ffffffff610d5f16565b600160a060020a0380861660009081526020819052604080822093909355908516815220546105e2908363ffffffff610d7116565b600160a060020a03808516600090815260208181526040808320949094559187168152600282528281203382529091522054610624908363ffffffff610d5f16565b600160a060020a03808616600081815260026020908152604080832033845282529182902094909455805186815290519287169391927fddf252ad1be2c89b69c2b068fc378daa952ba7f163c4a11628f55a4df523b3ef929181900390910190a35060019392505050565b60065481565b600081565b3360009081526007602052604081205460ff16151560011461074357604080517f08c379a000000000000000000000000000000000000000000000000000000000815260206004820152603260248201527f596f7520646f6e27742068617665207065726d697373696f6e20746f2061637460448201527f696f6e20776974682063617264207061636b0000000000000000000000000000606482015290519081900360840190fd5b60035474010000000000000000000000000000000000000000900460ff161561076b57600080fd5b60015461077e908363ffffffff610d7116565b600155600160a060020a0383166000908152602081905260409020546107aa908363ffffffff610d7116565b600160a060020a03841660008181526020818152604091829020939093558051858152905191927f0f6798a560793a54c3bcfe86a93cde1e73087d944c0ea20544137d412139688592918290030190a2604080518381529051600160a060020a038516916000917fddf252ad1be2c89b69c2b068fc378daa952ba7f163c4a11628f55a4df523b3ef9181900360200190a350600192915050565b3360009081526007602052604090205460ff1615156001146108ed57604080517f08c379a000000000000000000000000000000000000000000000000000000000815260206004820152603260248201527f596f7520646f6e27742068617665207065726d697373696f6e20746f2061637460448201527f696f6e20776974682063617264207061636b0000000000000000000000000000606482015290519081900360840190fd5b600160a060020a03166000908152600760205260409020805460ff19166001179055565b336000908152600260209081526040808320600160a060020a038616845290915281205480831061096557336000908152600260209081526040808320600160a060020a038816845290915281205561099a565b610975818463ffffffff610d5f16565b336000908152600260209081526040808320600160a060020a03891684529091529020555b336000818152600260209081526040808320600160a060020a0389168085529083529281902054815190815290519293927f8c5be1e5ebec7d5bd14f71427d1e84f3dd0314c0f7b2291e5b200ac8c7c3b925929181900390910190a35060019392505050565b600160a060020a031660009081526020819052604090205490565b600354600160a060020a03163314610a3257600080fd5b600354604051600160a060020a03909116907ff8df31144d9c2f0f6b59d69b8b98abd5459d07f2742c4df920b25aae33c6482090600090a26003805473ffffffffffffffffffffffffffffffffffffffff19169055565b600354600090600160a060020a03163314610aa357600080fd5b60035474010000000000000000000000000000000000000000900460ff1615610acb57600080fd5b6003805474ff00000000000000000000000000000000000000001916740100000000000000000000000000000000000000001790556040517fae5184fba832cb2b1f702aca6117b8d265eaf03ad33eb133f19dde0f5920fa0890600090a150600190565b600354600160a060020a031681565b6005805460408051602060026001851615610100026000190190941693909304601f810184900484028201840190925281815292918301828280156104a65780601f1061047b576101008083540402835291602001916104a6565b33600090815260208190526040812054821115610bb557600080fd5b600160a060020a0383161515610bca57600080fd5b33600090815260208190526040902054610bea908363ffffffff610d5f16565b3360009081526020819052604080822092909255600160a060020a03851681522054610c1c908363ffffffff610d7116565b600160a060020a038416600081815260208181526040918290209390935580518581529051919233927fddf252ad1be2c89b69c2b068fc378daa952ba7f163c4a11628f55a4df523b3ef9281900390910190a350600192915050565b336000908152600260209081526040808320600160a060020a0386168452909152812054610cac908363ffffffff610d7116565b336000818152600260209081526040808320600160a060020a0389168085529083529281902085905580519485525191937f8c5be1e5ebec7d5bd14f71427d1e84f3dd0314c0f7b2291e5b200ac8c7c3b925929081900390910190a350600192915050565b600160a060020a03918216600090815260026020908152604080832093909416825291909152205490565b600354600160a060020a03163314610d5357600080fd5b610d5c81610d84565b50565b600082821115610d6b57fe5b50900390565b81810182811015610d7e57fe5b92915050565b600160a060020a0381161515610d9957600080fd5b600354604051600160a060020a038084169216907f8be0079c531659141344cd1fd0a4f28419497f9722a3daafe3b4186f6b6457e090600090a36003805473ffffffffffffffffffffffffffffffffffffffff1916600160a060020a03929092169190911790555600a165627a7a723058201d18cc0a496901ed0eb53dab3bc219633c175b1749ae5a5fe9a483f40d463f890029",
  "source": "pragma solidity 0.4.24;\n\nimport 'openzeppelin-solidity/contracts/token/ERC20/MintableToken.sol';\n\ncontract BoosterPack is MintableToken {\n    string public name;\n    string public symbol;\n    uint8 public constant decimals = 0;\n    uint256 public INITIAL_SUPPLY = 1000 * (10 ** uint256(decimals));\n    mapping (address => bool) validator;\n\n    constructor(string _name, string _symbol) public {\n        validator[msg.sender] = true;\n        totalSupply_ = INITIAL_SUPPLY;\n        balances[msg.sender] = INITIAL_SUPPLY;\n        name = _name;\n        symbol = _symbol;\n    }\n\n    // Overloaded `mint` function of Mintable token for onlyValidator\n    function mint(address _to, uint256 _amount) onlyValidator canMint public returns (bool) {\n        totalSupply_ = totalSupply_.add(_amount);\n        balances[_to] = balances[_to].add(_amount);\n        emit Mint(_to, _amount);\n        emit Transfer(address(0), _to, _amount);\n        return true;\n    }\n\n    function addValidator(address newValidator) onlyValidator public {\n        validator[newValidator] = true;\n    }\n\n    modifier onlyValidator() {\n        require(validator[msg.sender] == true, 'You don\\'t have permission to action with card pack');\n        _;\n    }\n\n}\n",
  "sourcePath": "/Users/loom2/Documents/mimi/loomx/git/CardFaucet/contracts/Core/BoosterPack.sol",
  "compiler": {
    "name": "solc",
    "version": "0.4.24+commit.e67f0147.Emscripten.clang"
  },
  "schemaVersion": "2.0.1",
  "updatedAt": "2019-05-09T08:40:47.134Z"
}