{
  "contractName": "CardFaucet",
  "abi": [
    {
      "inputs": [
        {
          "name": "creator",
          "type": "address"
        },
        {
          "name": "cardAddress",
          "type": "address"
        },
        {
          "name": "boosterPackAddr",
          "type": "address"
        },
        {
          "name": "superPackAddr",
          "type": "address"
        },
        {
          "name": "airPackAddr",
          "type": "address"
        },
        {
          "name": "earthPackAddr",
          "type": "address"
        },
        {
          "name": "firePackAddr",
          "type": "address"
        },
        {
          "name": "lifePackAddr",
          "type": "address"
        },
        {
          "name": "toxicPackAddr",
          "type": "address"
        },
        {
          "name": "waterPackAddr",
          "type": "address"
        }
      ],
      "payable": false,
      "stateMutability": "nonpayable",
      "type": "constructor"
    },
    {
      "anonymous": false,
      "inputs": [
        {
          "indexed": false,
          "name": "cardId",
          "type": "uint256"
        },
        {
          "indexed": false,
          "name": "boosterType",
          "type": "uint8"
        }
      ],
      "name": "GeneratedCard",
      "type": "event"
    },
    {
      "anonymous": false,
      "inputs": [
        {
          "indexed": false,
          "name": "cardId",
          "type": "uint256"
        }
      ],
      "name": "UpgradedCardToBE",
      "type": "event"
    },
    {
      "anonymous": false,
      "inputs": [
        {
          "indexed": false,
          "name": "cardId",
          "type": "uint256"
        }
      ],
      "name": "UpgradedCardToLE",
      "type": "event"
    },
    {
      "anonymous": false,
      "inputs": [
        {
          "indexed": false,
          "name": "target",
          "type": "uint256"
        },
        {
          "indexed": false,
          "name": "total",
          "type": "uint256"
        }
      ],
      "name": "LimitedDifficultyChanged",
      "type": "event"
    },
    {
      "anonymous": false,
      "inputs": [
        {
          "indexed": false,
          "name": "target",
          "type": "uint256"
        },
        {
          "indexed": false,
          "name": "total",
          "type": "uint256"
        }
      ],
      "name": "BackerDifficultyChanged",
      "type": "event"
    },
    {
      "anonymous": false,
      "inputs": [
        {
          "indexed": false,
          "name": "boosterTypes",
          "type": "uint256"
        },
        {
          "indexed": false,
          "name": "rarity",
          "type": "uint256"
        },
        {
          "indexed": false,
          "name": "cardList",
          "type": "uint256[]"
        }
      ],
      "name": "DropratesSet",
      "type": "event"
    },
    {
      "constant": false,
      "inputs": [
        {
          "name": "boosterType",
          "type": "uint256"
        },
        {
          "name": "rarity",
          "type": "uint256"
        },
        {
          "name": "cardList",
          "type": "uint256[]"
        }
      ],
      "name": "setupDroprates",
      "outputs": [],
      "payable": false,
      "stateMutability": "nonpayable",
      "type": "function"
    },
    {
      "constant": true,
      "inputs": [
        {
          "name": "boosterType",
          "type": "uint256"
        },
        {
          "name": "rarity",
          "type": "uint256"
        }
      ],
      "name": "getDroprates",
      "outputs": [
        {
          "name": "cardList",
          "type": "uint256[]"
        }
      ],
      "payable": false,
      "stateMutability": "view",
      "type": "function"
    },
    {
      "constant": false,
      "inputs": [
        {
          "name": "boosterType",
          "type": "uint8"
        }
      ],
      "name": "openBoosterPack",
      "outputs": [],
      "payable": false,
      "stateMutability": "nonpayable",
      "type": "function"
    },
    {
      "constant": false,
      "inputs": [
        {
          "name": "_target",
          "type": "uint256"
        },
        {
          "name": "_total",
          "type": "uint256"
        }
      ],
      "name": "updateDifficultyBE",
      "outputs": [],
      "payable": false,
      "stateMutability": "nonpayable",
      "type": "function"
    },
    {
      "constant": false,
      "inputs": [
        {
          "name": "_target",
          "type": "uint256"
        },
        {
          "name": "_total",
          "type": "uint256"
        }
      ],
      "name": "updateDifficultyLE",
      "outputs": [],
      "payable": false,
      "stateMutability": "nonpayable",
      "type": "function"
    },
    {
      "constant": false,
      "inputs": [],
      "name": "endBackersPeriod",
      "outputs": [],
      "payable": false,
      "stateMutability": "nonpayable",
      "type": "function"
    },
    {
      "constant": false,
      "inputs": [
        {
          "name": "newValidator",
          "type": "address"
        }
      ],
      "name": "addValidator",
      "outputs": [],
      "payable": false,
      "stateMutability": "nonpayable",
      "type": "function"
    }
  ],
  "bytecode": "0x6000805460ff191660019081179091556102ee9055600a6002556103e86003819055610100604052600f6080908152604b60a05261014560c05260e09190915261004d90600e90600461015d565b5034801561005a57600080fd5b5060405161014080610f978339810160409081528151602080840151838501516060860151608087015160a088015160c089015160e08a01516101008b0151610120909b0151600160a060020a03998a166000908152600d909952999097208054600160ff1990911617905560048054600160a060020a0319908116978a169790971790556005805487169589169590951790945560068054861693881693909317909255600780548516918716919091179055600880548416918616919091179055600980548316918516919091179055600a8054821692841692909217909155600b8054821694831694909417909355600c805490931691161790556101cb565b82805482825590600052602060002090810192821561019e579160200282015b8281111561019e578251829061ffff1690559160200191906001019061017d565b506101aa9291506101ae565b5090565b6101c891905b808211156101aa57600081556001016101b4565b90565b610dbd806101da6000396000f3006080604052600436106100825763ffffffff7c01000000000000000000000000000000000000000000000000000000006000350416633921045281146100875780634d238c8e1461009e57806354b156fb146100bf578063576de2471461012a5780639770993f14610145578063a70afe6c14610160578063e6fa7717146101be575b600080fd5b34801561009357600080fd5b5061009c6101d9565b005b3480156100aa57600080fd5b5061009c600160a060020a036004351661023f565b3480156100cb57600080fd5b506100da6004356024356102bd565b60408051602080825283518183015283519192839290830191858101910280838360005b838110156101165781810151838201526020016100fe565b505050509050019250505060405180910390f35b34801561013657600080fd5b5061009c60ff60043516610328565b34801561015157600080fd5b5061009c600435602435610544565b34801561016c57600080fd5b50604080516020600460443581810135838102808601850190965280855261009c9583359560248035963696956064959394920192918291850190849080828437509497506105e79650505050505050565b3480156101ca57600080fd5b5061009c6004356024356106f3565b336000908152600d602052604090205460ff161515600114610233576040805160e560020a62461bcd02815260206004820152600e6024820152600080516020610d72833981519152604482015290519081900360640190fd5b6000805460ff19169055565b336000908152600d602052604090205460ff161515600114610299576040805160e560020a62461bcd02815260206004820152600e6024820152600080516020610d72833981519152604482015290519081900360640190fd5b600160a060020a03166000908152600d60205260409020805460ff19166001179055565b600082815260106020908152604080832084845282529182902080548351818402810184019094528084526060939283018282801561031b57602002820191906000526020600020905b815481526020019060010190808311610307575b5050505050905092915050565b600080600061033684610796565b604080517f23b872dd000000000000000000000000000000000000000000000000000000008152336004820152306024820152600160448201529051919450600160a060020a038516916323b872dd916064808201926020929091908290030181600087803b1580156103a857600080fd5b505af11580156103bc573d6000803e3d6000fd5b505050506040513d60208110156103d257600080fd5b5060009250505b600482101561049557600454600160a060020a0316630febdd4981336103fe8861091c565b604080517c010000000000000000000000000000000000000000000000000000000063ffffffff8716028152600160a060020a0394851660048201529290931660248301526044820152600160648201529051608480830192600092919082900301818387803b15801561047157600080fd5b505af1158015610485573d6000803e3d6000fd5b5050600190930192506103d99050565b61049e8461091c565b90506104a981610ad3565b60048054604080517f0febdd49000000000000000000000000000000000000000000000000000000008152600160a060020a039092169282018390523360248301526044820184905260016064830152519293509091630febdd499160848082019260009290919082900301818387803b15801561052657600080fd5b505af115801561053a573d6000803e3d6000fd5b5050505050505050565b336000908152600d602052604090205460ff16151560011461059e576040805160e560020a62461bcd02815260206004820152600e6024820152600080516020610d72833981519152604482015290519081900360640190fd5b60018290556003819055604080518381526020810183905281517fc39d86a0778a5e4422276c5eb2b4e7879a2bf8f5d90c5df2486e3fe3a2dc5695929181900390910190a15050565b336000908152600d602052604090205460ff161515600114610641576040805160e560020a62461bcd02815260206004820152600e6024820152600080516020610d72833981519152604482015290519081900360640190fd5b60008381526010602090815260408083208584528252909120825161066892840190610d09565b507f14a183efe3b4ac142b43a017dc8b0436c6ca117f708a267c5fd178ab52e7d47a8383836040518084815260200183815260200180602001828103825283818151815260200191508051906020019060200280838360005b838110156106d95781810151838201526020016106c1565b5050505090500194505050505060405180910390a1505050565b336000908152600d602052604090205460ff16151560011461074d576040805160e560020a62461bcd02815260206004820152600e6024820152600080516020610d72833981519152604482015290519081900360640190fd5b60028290556003819055604080518381526020810183905281517fbd9657322623c7e27f36dd8e37a8f3f3af601a8220da154bc738501de723a345929181900390910190a15050565b6000808260078111156107a557fe5b14156107bd5750600554600160a060020a0316610917565b60018260078111156107cb57fe5b14156107e35750600654600160a060020a0316610917565b60028260078111156107f157fe5b14156108095750600754600160a060020a0316610917565b600382600781111561081757fe5b141561082f5750600854600160a060020a0316610917565b600482600781111561083d57fe5b14156108555750600954600160a060020a0316610917565b600582600781111561086357fe5b141561087b5750600a54600160a060020a0316610917565b600682600781111561088957fe5b14156108a15750600b54600160a060020a0316610917565b60078260078111156108af57fe5b14156108c75750600c54600160a060020a0316610917565b6040805160e560020a62461bcd02815260206004820152601260248201527f57726f6e6720626f6f7374657220747970650000000000000000000000000000604482015290519081900360640190fd5b919050565b6000808080606081600187600781111561093257fe5b1461093f576103e8610943565b6101455b9450610950600086610b8e565b935061095b84610c3e565b9250600187600781111561096b57fe5b141561097657600096505b6010600088600781111561098657fe5b815260200190815260200160002060008481526020019081526020016000208054806020026020016040519081016040528092919081815260200182805480156109ef57602002820191906000526020600020905b8154815260200190600101908083116109db575b5050505050915060008251111515610a51576040805160e560020a62461bcd02815260206004820152601a60248201527f666f756e6420616e20656d707479206361726473206172726179000000000000604482015290519081900360640190fd5b610a5d60008351610b8e565b90508181815181101515610a6d57fe5b90602001906020020151600a0295507f990c7cbd32f45065c898d3b6c2f238fea70229c28ddeb9ddce2f402eeb60a10e868860405180838152602001826007811115610ab557fe5b60ff1681526020019250505060405180910390a15050505050919050565b600080610ae36000600354610b8e565b9050600254811015610b31576002830192507fed0686f5b22006b8759c636c5c54007c681f80440f137b685adacb2907d43846836040518082815260200191505060405180910390a1610b87565b60015481108015610b44575060005460ff165b15610b87576001830192507f7950d9168421908781ca1e29d338b03d59d63e4afeebae90f60b4adfa14cda5b836040518082815260200191505060405180910390a15b5090919050565b600f546040805160001943014060208083019190915281830193909352815180820383018152606090910191829052805160009384939182918401908083835b60208310610bed5780518252601f199092019160209182019101610bce565b5181516020939093036101000a60001901801990911692169190911790526040519201829003909120600f8054600101905593505050848403905081811515610c3257fe5b06840191505092915050565b600e5460009081808410801590610c5757506103e88411155b1515610cad576040805160e560020a62461bcd02815260206004820152601e60248201527f44726f702072617465206e756d626572206f7574206f6620626f756e64730000604482015290519081900360640190fd5b5060005b81811015610d0257600e805482908110610cc757fe5b906000526020600020015484111515610cfa57600e805482908110610ce857fe5b90600052602060002001549250610d02565b600101610cb1565b5050919050565b828054828255906000526020600020908101928215610d44579160200282015b82811115610d44578251825591602001919060010190610d29565b50610d50929150610d54565b5090565b610d6e91905b80821115610d505760008155600101610d5a565b90560056616c696461746f72206f6e6c79000000000000000000000000000000000000a165627a7a72305820f60645b23987fe45638927fe632e801bbf80b6a47e4009c156c7c3ac40ac7ad20029",
  "source": "pragma solidity 0.4.24;\n\nimport \"openzeppelin-solidity/contracts/token/ERC20/ERC20.sol\";\nimport \"erc721x/contracts/Interfaces/ERC721X.sol\";\n\ncontract CardFaucet {\n\n    event GeneratedCard(uint256 cardId, BoosterType boosterType);\n    event UpgradedCardToBE(uint256 cardId);\n    event UpgradedCardToLE(uint256 cardId);\n    event LimitedDifficultyChanged(uint256 target, uint256 total);\n    event BackerDifficultyChanged(uint256 target, uint256 total);\n    event DropratesSet(uint256 boosterTypes, uint256 rarity, uint256[] cardList);\n\n    bool inBackersPeriod = true; // BE cards only claimable through the faucet as long as this is true\n    // We want 15% of all cards to be BE. Since a card that may be upgraded is only 1/5 per booster, it must have 5 * 15% chance to be BE.\n    uint256 private BE_TARGET = 750;\n    // We want 0.2% of all cards to be LE. Since a card that may be upgraded is only 1/5 per booster, it must have 10% chance to be BE.\n    uint256 private LE_TARGET = 10;\n    uint256 private TOTAL = 1000;\n\n    ERC721X zbgCard;\n    ERC20 boosterPack;\n    ERC20 superPack;\n    ERC20 airPack;\n    ERC20 earthPack;\n    ERC20 firePack;\n    ERC20 lifePack;\n    ERC20 toxicPack;\n    ERC20 waterPack;\n\n    enum BoosterType {\n        BOOSTER,\n        SUPER,\n        AIR,\n        EARTH,\n        FIRE,\n        LIFE,\n        TOXIC,\n        WATER\n    }\n\n    mapping(address => bool) validators;\n\n    // General  : [0, 15)   - 1.5% chance\n    // Commander: [15, 75)  - 6% chance\n    // Officer  : [75, 325) - 25% chance\n    // Minion   : 325, 1000 - 67.5% chance\n    uint256[] dropRateKeys = [15, 75, 325, 1000];\n    uint256 constant COMMON_ROLL = 1000;\n    uint256 constant RARE_ROLL = 325; // Roll up to 325 to get a guaranteed rare\n    uint256 constant RARITIES = 10;\n    uint256 nonce;\n    mapping(uint256 => mapping(uint256 => uint256[])) dropRateValues;\n\n    constructor(\n        address creator,\n        address cardAddress,\n        address boosterPackAddr,\n        address superPackAddr,\n        address airPackAddr,\n        address earthPackAddr,\n        address firePackAddr,\n        address lifePackAddr,\n        address toxicPackAddr,\n        address waterPackAddr\n    ) public {\n        validators[creator] = true;\n        zbgCard = ERC721X(cardAddress);\n        boosterPack = ERC20(boosterPackAddr);\n        superPack = ERC20(superPackAddr);\n        airPack = ERC20(airPackAddr);\n        earthPack = ERC20(earthPackAddr);\n        firePack = ERC20(firePackAddr);\n        lifePack = ERC20(lifePackAddr);\n        toxicPack = ERC20(toxicPackAddr);\n        waterPack = ERC20(waterPackAddr);\n    }\n\n    function setupDroprates(uint256 boosterType, uint256 rarity, uint256[] cardList) public onlyValidator {\n        dropRateValues[boosterType][rarity] = cardList;\n        emit DropratesSet(boosterType, rarity, cardList);\n    }\n\n    function getDroprates(uint256 boosterType, uint256 rarity) public view returns (uint256[] cardList) {\n        cardList = dropRateValues[boosterType][rarity];\n    }\n\n    function openBoosterPack(BoosterType boosterType) external {\n        ERC20 booster = getBoosterPack(boosterType);\n\n        // Get the booster pack address\n        booster.transferFrom(msg.sender, address(this), 1);\n\n        // If the boosterpack is a super pack, we give 4 normal and 1 rare from\n        // the starter pack\n        for (uint256 i = 0; i < 4; i++) {\n            zbgCard.safeTransferFrom(address(zbgCard), msg.sender, _generateCard(boosterType), 1);\n        }\n\n        // Check if the 5th card should be upgraded.\n        // If so, instead of sending the usual tokenId,\n        // send `tokenId+1` which is the BE version\n        uint256 tokenId = _generateCard(boosterType); // Super packs give a guaranteed rare\n        tokenId = shouldUpgrade(tokenId);\n\n        zbgCard.safeTransferFrom(address(zbgCard), msg.sender, tokenId, 1);\n    }\n\n    /// @notice Upgrade only if the random roll from (0, `TOTAL`) is less than `target`\n    /// @dev Call `updateBackerDifficulty` from a validator account in order\n    ///      to update the target values (ideally with values calculated\n    ///      from an algorithm that takes elo and previous difficulty into account)\n    function shouldUpgrade(uint256 tokenId) private returns (uint256) {\n        uint256 rand = _randomInRange(0, TOTAL);\n        if  (rand < LE_TARGET) {\n            tokenId += 2;\n            emit UpgradedCardToLE(tokenId);\n        }\n        else if (rand < BE_TARGET && inBackersPeriod) {\n            tokenId += 1;\n            emit UpgradedCardToBE(tokenId);\n        }\n        return tokenId;\n    }\n\n    function _generateCard(BoosterType boosterType) private returns (uint256 cardId) {\n        // Rolls bigger than RARE_ROLL are commons. We exclude these\n        // in the case of a rare roll\n        uint256 roll = boosterType == BoosterType.SUPER ? RARE_ROLL : COMMON_ROLL ;\n        uint256 _randomNumber = _randomInRange(0, roll);\n        uint256 level = getDropRateLevel(_randomNumber);\n\n        // if the booster is a super one we get\n        // the drop rate values from the starter pack\n        if (boosterType == BoosterType.SUPER) {\n            boosterType = BoosterType.BOOSTER;\n        }\n\n        // List of cards at that rarity\n        uint256[] memory cards = dropRateValues[uint256(boosterType)][level];\n        require(cards.length > 0, \"found an empty cards array\");\n\n        // Pick a random cardId in that range\n        uint256 index = _randomInRange(0, cards.length);\n        cardId = RARITIES * cards[index]; // Return cardId * RARITIES to match the token indexing for all rarities.\n        emit GeneratedCard(cardId, boosterType);\n    }\n\n    function getDropRateLevel(uint256 num) private view returns (uint256 level) {\n        uint256 length = dropRateKeys.length;\n        require(num >= 0 && num <= 1000, \"Drop rate number out of bounds\");\n        for (uint i =  0; i < length ; i++ ) {\n            if (num <= dropRateKeys[i]) {\n                level = dropRateKeys[i];\n                break;\n            }\n        }\n    }\n    function getBoosterPack(BoosterType boosterType) private view returns (ERC20 booster) {\n        if (boosterType == BoosterType.BOOSTER) {\n            booster = boosterPack;\n        } else if (boosterType == BoosterType.SUPER) {\n            booster = superPack;\n        } else if (boosterType == BoosterType.AIR) {\n            booster = airPack;\n        } else if (boosterType == BoosterType.EARTH) {\n            booster = earthPack;\n        } else if (boosterType == BoosterType.FIRE) {\n            booster = firePack;\n        } else if (boosterType == BoosterType.LIFE) {\n            booster = lifePack;\n        } else if (boosterType == BoosterType.TOXIC) {\n            booster = toxicPack;\n        } else if (boosterType == BoosterType.WATER) {\n            booster = waterPack;\n        } else {\n            revert(\"Wrong booster type\");\n        }\n    }\n\n    function _randomInRange(uint256 min, uint256 max) private returns (uint256) {\n        uint256 rand = uint256(keccak256(abi.encodePacked(blockhash(block.number-1), nonce)));\n        nonce++;\n        return min + rand % (max-min);\n    }\n\n    function updateDifficultyBE(uint256 _target, uint256 _total) public onlyValidator {\n        BE_TARGET = _target;\n        TOTAL = _total;\n        emit BackerDifficultyChanged(BE_TARGET, _total);\n    }\n\n    function updateDifficultyLE(uint256 _target, uint256 _total) public onlyValidator {\n        LE_TARGET = _target;\n        TOTAL = _total;\n        emit LimitedDifficultyChanged(LE_TARGET, _total);\n    }\n\n    // Function to trigger BE cards being generated.\n    function endBackersPeriod() external onlyValidator {\n        inBackersPeriod = false;\n    }\n\n    function addValidator(address newValidator) external onlyValidator {\n        validators[newValidator] = true;\n    }\n\n    modifier onlyValidator() {\n        require(validators[msg.sender] == true,  'Validator only');\n        _;\n    }\n}\n",
  "sourcePath": "/Users/thegrey/work/CardFaucet/contracts/Core/CardFaucet.sol",
  "compiler": {
    "name": "solc",
    "version": "0.4.24+commit.e67f0147.Emscripten.clang"
  },
  "schemaVersion": "2.0.1",
  "updatedAt": "2018-09-26T08:50:49.137Z"
}