{
  "contractName": "FiatPurchase",
  "abi": [
    {
      "constant": true,
      "inputs": [
        {
          "name": "",
          "type": "uint256"
        }
      ],
      "name": "nonces",
      "outputs": [
        {
          "name": "",
          "type": "uint256"
        }
      ],
      "payable": false,
      "stateMutability": "view",
      "type": "function"
    },
    {
      "constant": false,
      "inputs": [],
      "name": "renounceOwnership",
      "outputs": [],
      "payable": false,
      "stateMutability": "nonpayable",
      "type": "function"
    },
    {
      "constant": true,
      "inputs": [],
      "name": "owner",
      "outputs": [
        {
          "name": "",
          "type": "address"
        }
      ],
      "payable": false,
      "stateMutability": "view",
      "type": "function"
    },
    {
      "constant": false,
      "inputs": [
        {
          "name": "_newOwner",
          "type": "address"
        }
      ],
      "name": "transferOwnership",
      "outputs": [],
      "payable": false,
      "stateMutability": "nonpayable",
      "type": "function"
    },
    {
      "inputs": [
        {
          "name": "deployerAddr",
          "type": "address"
        },
        {
          "name": "gatewayKeyPubAddr",
          "type": "address"
        },
        {
          "name": "boosterPackAddr",
          "type": "address"
        },
        {
          "name": "superPackAddr",
          "type": "address"
        },
        {
          "name": "airPackAddr",
          "type": "address"
        },
        {
          "name": "earthPackAddr",
          "type": "address"
        },
        {
          "name": "firePackAddr",
          "type": "address"
        },
        {
          "name": "lifePackAddr",
          "type": "address"
        },
        {
          "name": "toxicPackAddr",
          "type": "address"
        },
        {
          "name": "waterPackAddr",
          "type": "address"
        }
      ],
      "payable": false,
      "stateMutability": "nonpayable",
      "type": "constructor"
    },
    {
      "anonymous": false,
      "inputs": [
        {
          "indexed": false,
          "name": "sender",
          "type": "address"
        },
        {
          "indexed": false,
          "name": "txId",
          "type": "uint256"
        },
        {
          "indexed": false,
          "name": "userId",
          "type": "uint256"
        },
        {
          "indexed": false,
          "name": "hash",
          "type": "bytes32"
        },
        {
          "indexed": false,
          "name": "ecrecover",
          "type": "address"
        },
        {
          "indexed": false,
          "name": "gatewayAddr",
          "type": "address"
        }
      ],
      "name": "PurchaseSent",
      "type": "event"
    },
    {
      "anonymous": false,
      "inputs": [
        {
          "indexed": true,
          "name": "previousOwner",
          "type": "address"
        }
      ],
      "name": "OwnershipRenounced",
      "type": "event"
    },
    {
      "anonymous": false,
      "inputs": [
        {
          "indexed": true,
          "name": "previousOwner",
          "type": "address"
        },
        {
          "indexed": true,
          "name": "newOwner",
          "type": "address"
        }
      ],
      "name": "OwnershipTransferred",
      "type": "event"
    },
    {
      "constant": false,
      "inputs": [
        {
          "name": "userID",
          "type": "uint256"
        },
        {
          "name": "r",
          "type": "bytes32"
        },
        {
          "name": "s",
          "type": "bytes32"
        },
        {
          "name": "v",
          "type": "uint8"
        },
        {
          "name": "hash",
          "type": "bytes32"
        },
        {
          "name": "amounts",
          "type": "uint256[8]"
        },
        {
          "name": "txID",
          "type": "uint256"
        }
      ],
      "name": "requestPacks",
      "outputs": [],
      "payable": false,
      "stateMutability": "nonpayable",
      "type": "function"
    },
    {
      "constant": false,
      "inputs": [],
      "name": "stopContract",
      "outputs": [],
      "payable": false,
      "stateMutability": "nonpayable",
      "type": "function"
    }
  ],
  "bytecode": "0x6080604052600180556003805460a060020a60ff0219167401000000000000000000000000000000000000000017905534801561003b57600080fd5b5060405161014080610ca683398101604090815281516020830151918301516060840151608085015160a086015160c087015160e08801516101008901516101209099015160008054600160a060020a03191633179055969895969495939492939192909190600160a060020a03891615156100b657600080fd5b60038054600160a060020a0319908116600160a060020a039b8c1617909155600580548216998b1699909917909855600680548916978a16979097179096556007805488169589169590951790945560088054871693881693909317909255600980548616918716919091179055600a80548516918616919091179055600b80548416918516919091179055600c8054909216921691909117905550610b45806101616000396000f3006080604052600436106100775763ffffffff7c010000000000000000000000000000000000000000000000000000000060003504166312253a6c811461007c578063141a468c14610093578063715018a6146100bd5780638da5cb5b146100d2578063b420587214610103578063f2fde38b14610160575b600080fd5b34801561008857600080fd5b50610091610181565b005b34801561009f57600080fd5b506100ab6004356101b8565b60408051918252519081900360200190f35b3480156100c957600080fd5b506100916101ca565b3480156100de57600080fd5b506100e7610236565b60408051600160a060020a039092168252519081900360200190f35b34801561010f57600080fd5b5060408051610100818101909252610091916004803592602435926044359260ff6064351692608435923692916101a49160a490600890839083908082843750939650509235935061024592505050565b34801561016c57600080fd5b50610091600160a060020a0360043516610a79565b600054600160a060020a0316331461019857600080fd5b6003805474ff000000000000000000000000000000000000000019169055565b60046020526000908152604090205481565b600054600160a060020a031633146101e157600080fd5b60008054604051600160a060020a03909116917ff8df31144d9c2f0f6b59d69b8b98abd5459d07f2742c4df920b25aae33c6482091a26000805473ffffffffffffffffffffffffffffffffffffffff19169055565b600054600160a060020a031681565b828783600060200201518460016020020151856002602002015186600360200201518760046020020151886005602002015189600660200201518a600760200201518a600154604051602001808c81526020018b81526020018a81526020018981526020018881526020018781526020018681526020018581526020018481526020018381526020018281526020019b5050505050505050505050506040516020818303038152906040526040518082805190602001908083835b6020831061031f5780518252601f199092019160209182019101610300565b6001836020036101000a0380198251168184511680821785525050505050509050019150506040518091039020600019161415156103a7576040805160e560020a62461bcd02815260206004820152600d60248201527f48617368206d69736d6174636800000000000000000000000000000000000000604482015290519081900360640190fd5b60008181526004602052604090205460011161040d576040805160e560020a62461bcd02815260206004820152601360248201527f5472616e73616374696f6e20636c61696d656400000000000000000000000000604482015290519081900360640190fd5b600354604080516000808252602080830180855288905260ff891683850152606083018b9052608083018a90529251600160a060020a039094169360019360a0808501949193601f19840193928390039091019190865af1158015610476573d6000803e3d6000fd5b50505060206040510351600160a060020a03161415156104e0576040805160e560020a62461bcd02815260206004820152601160248201527f496e76616c6964207369676e6174757265000000000000000000000000000000604482015290519081900360640190fd5b60035474010000000000000000000000000000000000000000900460ff161515610554576040805160e560020a62461bcd02815260206004820152601360248201527f436f6e7472616374207465726d696e6174656400000000000000000000000000604482015290519081900360640190fd5b60055482516040805160e060020a6340c10f19028152336004820152602481019290925251600160a060020a03909216916340c10f19916044808201926020929091908290030181600087803b1580156105ad57600080fd5b505af11580156105c1573d6000803e3d6000fd5b505050506040513d60208110156105d757600080fd5b50506006546020808401516040805160e060020a6340c10f19028152336004820152602481019290925251600160a060020a03909316926340c10f19926044808401939192918290030181600087803b15801561063357600080fd5b505af1158015610647573d6000803e3d6000fd5b505050506040513d602081101561065d57600080fd5b5050600754604080840151815160e060020a6340c10f1902815233600482015260248101919091529051600160a060020a03909216916340c10f19916044808201926020929091908290030181600087803b1580156106bb57600080fd5b505af11580156106cf573d6000803e3d6000fd5b505050506040513d60208110156106e557600080fd5b505060085460608301516040805160e060020a6340c10f19028152336004820152602481019290925251600160a060020a03909216916340c10f19916044808201926020929091908290030181600087803b15801561074357600080fd5b505af1158015610757573d6000803e3d6000fd5b505050506040513d602081101561076d57600080fd5b505060095460808301516040805160e060020a6340c10f19028152336004820152602481019290925251600160a060020a03909216916340c10f19916044808201926020929091908290030181600087803b1580156107cb57600080fd5b505af11580156107df573d6000803e3d6000fd5b505050506040513d60208110156107f557600080fd5b5050600a5460a08301516040805160e060020a6340c10f19028152336004820152602481019290925251600160a060020a03909216916340c10f19916044808201926020929091908290030181600087803b15801561085357600080fd5b505af1158015610867573d6000803e3d6000fd5b505050506040513d602081101561087d57600080fd5b5050600b5460c08301516040805160e060020a6340c10f19028152336004820152602481019290925251600160a060020a03909216916340c10f19916044808201926020929091908290030181600087803b1580156108db57600080fd5b505af11580156108ef573d6000803e3d6000fd5b505050506040513d602081101561090557600080fd5b5050600c5460e08301516040805160e060020a6340c10f19028152336004820152602481019290925251600160a060020a03909216916340c10f19916044808201926020929091908290030181600087803b15801561096357600080fd5b505af1158015610977573d6000803e3d6000fd5b505050506040513d602081101561098d57600080fd5b50506000818152600460209081526040808320600190819055815184815280840180845288905260ff891681840152606081018b9052608081018a905291517f456378761b686159d5e51622437b9af1aa4a523210f16d54e542bcc6b40e36ac94339487948e948b94909360a08084019493601f198401939081900390910191865af1158015610a21573d6000803e3d6000fd5b505060408051601f19810151600354600160a060020a03988916835260208301979097528183019590955260608101939093529285166080830152509290911660a0830152519081900360c00190a150505050505050565b600054600160a060020a03163314610a9057600080fd5b610a9981610a9c565b50565b600160a060020a0381161515610ab157600080fd5b60008054604051600160a060020a03808516939216917f8be0079c531659141344cd1fd0a4f28419497f9722a3daafe3b4186f6b6457e091a36000805473ffffffffffffffffffffffffffffffffffffffff1916600160a060020a03929092169190911790555600a165627a7a7230582020e4d457922f7b04d6ea6f884e0b50b67b6bda6ae45d41db2f75c59c2e7995320029",
  "source": "pragma solidity 0.4.24;\n\nimport {MintableToken as ERC20} from \"openzeppelin-solidity/contracts/token/ERC20/MintableToken.sol\";\nimport \"openzeppelin-solidity/contracts/ownership/Ownable.sol\";\n\n\ncontract FiatPurchase is Ownable {\n    uint256 contractVersion = 1;\n\n    address originOwner;\n    address gatewayAddr;\n\n    bool isContractEnabled = true;\n\n    mapping(uint256 => uint256) public nonces; //map transactionID to nounce check\n\n    event PurchaseSent(address sender, uint256 txId, uint256 userId, bytes32 hash, address ecrecover, address gatewayAddr);\n\n    ERC20 boosterPack;\n    ERC20 superPack;\n    ERC20 airPack;\n    ERC20 earthPack;\n    ERC20 firePack;\n    ERC20 lifePack;\n    ERC20 toxicPack;\n    ERC20 waterPack;\n\n    constructor (\n        address deployerAddr,\n        address gatewayKeyPubAddr,\n        address boosterPackAddr,\n        address superPackAddr,\n        address airPackAddr,\n        address earthPackAddr,\n        address firePackAddr,\n        address lifePackAddr,\n        address toxicPackAddr,\n        address waterPackAddr\n    ) public {\n        require(gatewayKeyPubAddr != address(0x0));\n        gatewayAddr = gatewayKeyPubAddr;\n        boosterPack = ERC20(boosterPackAddr);\n        superPack = ERC20(superPackAddr);\n        airPack = ERC20(airPackAddr);\n        earthPack = ERC20(earthPackAddr);\n        firePack = ERC20(firePackAddr);\n        lifePack = ERC20(lifePackAddr);\n        toxicPack = ERC20(toxicPackAddr);\n        waterPack = ERC20(waterPackAddr);\n        Ownable(deployerAddr);\n    }\n\n    function requestPacks(\n        uint256 userID,\n        bytes32 r,\n        bytes32 s,\n        uint8 v,\n        bytes32 hash,\n        uint256[8] amounts,\n        uint256 txID\n    ) public {\n        require(keccak256(abi.encodePacked(\n            userID,\n            amounts[0],\n            amounts[1],\n            amounts[2],\n            amounts[3],\n            amounts[4],\n            amounts[5],\n            amounts[6],\n            amounts[7],\n            txID,\n            contractVersion)) == hash, \"Hash mismatch\");        \n\n        require(nonces[txID] < 1, \"Transaction claimed\");\n        require(ecrecover(hash, v, r, s) == gatewayAddr, \"Invalid signature\");\n        require(isContractEnabled, \"Contract terminated\");\n                \n        boosterPack.mint(msg.sender, amounts[0]);\n        superPack.mint(msg.sender, amounts[1]);\n        airPack.mint(msg.sender, amounts[2]);\n        earthPack.mint(msg.sender, amounts[3]);\n        firePack.mint(msg.sender, amounts[4]);\n        lifePack.mint(msg.sender, amounts[5]);\n        toxicPack.mint(msg.sender, amounts[6]);\n        waterPack.mint(msg.sender, amounts[7]);\n        \n        nonces[txID] = 1;\n        \n        emit PurchaseSent(msg.sender, txID, userID, hash, ecrecover(hash, v, r, s), gatewayAddr);\n\n    }\n\n    function stopContract() onlyOwner public  {\n        isContractEnabled = false;\n    }\n}\n",
  "sourcePath": "/Users/dp/Documents/GitHub/CardFaucet/contracts/Core/FiatPurchase.sol",
  "compiler": {
    "name": "solc",
    "version": "0.4.24+commit.e67f0147.Emscripten.clang"
  },
  "schemaVersion": "2.0.1",
  "updatedAt": "2018-09-27T10:19:26.481Z"
}