{
  "contractName": "KickstarterRewardClaim",
  "abi": [
    {
      "constant": true,
      "inputs": [
        {
          "name": "",
          "type": "uint256"
        }
      ],
      "name": "nonces",
      "outputs": [
        {
          "name": "",
          "type": "uint256"
        }
      ],
      "payable": false,
      "stateMutability": "view",
      "type": "function"
    },
    {
      "inputs": [
        {
          "name": "deployerAddr",
          "type": "address"
        },
        {
          "name": "gatewayKeyPubAddr",
          "type": "address"
        },
        {
          "name": "boosterPackAddr",
          "type": "address"
        },
        {
          "name": "superPackAddr",
          "type": "address"
        },
        {
          "name": "airPackAddr",
          "type": "address"
        },
        {
          "name": "earthPackAddr",
          "type": "address"
        },
        {
          "name": "firePackAddr",
          "type": "address"
        },
        {
          "name": "lifePackAddr",
          "type": "address"
        },
        {
          "name": "toxicPackAddr",
          "type": "address"
        },
        {
          "name": "waterPackAddr",
          "type": "address"
        }
      ],
      "payable": false,
      "stateMutability": "nonpayable",
      "type": "constructor"
    },
    {
      "anonymous": false,
      "inputs": [
        {
          "indexed": false,
          "name": "sender",
          "type": "address"
        },
        {
          "indexed": false,
          "name": "userId",
          "type": "uint256"
        },
        {
          "indexed": false,
          "name": "tier",
          "type": "uint256"
        },
        {
          "indexed": false,
          "name": "nonce",
          "type": "uint256"
        },
        {
          "indexed": false,
          "name": "hash",
          "type": "bytes32"
        },
        {
          "indexed": false,
          "name": "ecrecover",
          "type": "address"
        },
        {
          "indexed": false,
          "name": "gatewayAddr",
          "type": "address"
        }
      ],
      "name": "RequestRewardSent",
      "type": "event"
    },
    {
      "constant": false,
      "inputs": [
        {
          "name": "userID",
          "type": "uint256"
        },
        {
          "name": "tier",
          "type": "uint256"
        },
        {
          "name": "nonce",
          "type": "uint256"
        },
        {
          "name": "r",
          "type": "bytes32"
        },
        {
          "name": "s",
          "type": "bytes32"
        },
        {
          "name": "v",
          "type": "uint8"
        },
        {
          "name": "hash",
          "type": "bytes32"
        },
        {
          "name": "booster",
          "type": "uint256"
        },
        {
          "name": "rarechance",
          "type": "uint256"
        }
      ],
      "name": "requestRewards",
      "outputs": [],
      "payable": false,
      "stateMutability": "nonpayable",
      "type": "function"
    }
  ],
  "bytecode": "0x608060405234801561001057600080fd5b5060405161014080611a1b83398101604090815281516020830151918301516060840151608085015160a086015160c087015160e088015161010089015161012090990151969895969495939492939192909190600160a060020a038916151561007957600080fd5b60018054600160a060020a0319908116600160a060020a039b8c16179091556000805482169b8b169b909b178b55600380548216998b1699909917909855600480548916978a16979097179096556005805488169589169590951790945560068054871693881693909317909255600780548616918716919091179055600880548516918616919091179055600980548416918516919091179055600a805490921692169190911790556118e890819061013390396000f30060806040526004361061004b5763ffffffff7c0100000000000000000000000000000000000000000000000000000000600035041663141a468c8114610050578063adce9a011461007a575b600080fd5b34801561005c57600080fd5b506100686004356100b0565b60408051918252519081900360200190f35b34801561008657600080fd5b506100ae60043560243560443560643560843560ff60a4351660c43560e435610104356100c2565b005b60026020526000908152604090205481565b600088101580156100d4575060118811155b151561012a576040805160e560020a62461bcd02815260206004820152601160248201527f54696572206f7574206f662072616e6765000000000000000000000000000000604482015290519081900360640190fd5b6040805160208082018c90528183018b9052606082018a90526080820185905260a08083018590528351808403909101815260c09092019283905281518693918291908401908083835b602083106101935780518252601f199092019160209182019101610174565b6001836020036101000a03801982511681845116808217855250505050505090500191505060405180910390206000191614151561021b576040805160e560020a62461bcd02815260206004820152600e60248201527f55736572206e6f74206d61746368000000000000000000000000000000000000604482015290519081900360640190fd5b6000898152600260205260409020541561027f576040805160e560020a62461bcd02815260206004820152600e60248201527f52657761726420436c61696d6564000000000000000000000000000000000000604482015290519081900360640190fd5b60018054604080516000808252602080830180855289905260ff8a1683850152606083018c9052608083018b90529251600160a060020a03909416949360a08084019493601f19830193908390039091019190865af11580156102e6573d6000803e3d6000fd5b50505060206040510351600160a060020a0316141515610350576040805160e560020a62461bcd02815260206004820152601160248201527f496e76616c6964207369676e6174757265000000000000000000000000000000604482015290519081900360640190fd5b87151561035c5761169d565b876001141561036a5761169d565b87600214156103fc576003546040805160e060020a6340c10f19028152336004820152601960248201529051600160a060020a03909216916340c10f19916044808201926020929091908290030181600087803b1580156103ca57600080fd5b505af11580156103de573d6000803e3d6000fd5b505050506040513d60208110156103f457600080fd5b5061169d9050565b876003141561045c576003546040805160e060020a6340c10f19028152336004820152601960248201529051600160a060020a03909216916340c10f19916044808201926020929091908290030181600087803b1580156103ca57600080fd5b87600414156104bc576003546040805160e060020a6340c10f19028152336004820152603260248201529051600160a060020a03909216916340c10f19916044808201926020929091908290030181600087803b1580156103ca57600080fd5b876005141561059f576003546040805160e060020a6340c10f19028152336004820152604b60248201529051600160a060020a03909216916340c10f19916044808201926020929091908290030181600087803b15801561051c57600080fd5b505af1158015610530573d6000803e3d6000fd5b505050506040513d602081101561054657600080fd5b50506005546040805160e060020a6340c10f19028152336004820152600a60248201529051600160a060020a03909216916340c10f19916044808201926020929091908290030181600087803b1580156103ca57600080fd5b8760061415610682576003546040805160e060020a6340c10f19028152336004820152604b60248201529051600160a060020a03909216916340c10f19916044808201926020929091908290030181600087803b1580156105ff57600080fd5b505af1158015610613573d6000803e3d6000fd5b505050506040513d602081101561062957600080fd5b50506007546040805160e060020a6340c10f19028152336004820152600a60248201529051600160a060020a03909216916340c10f19916044808201926020929091908290030181600087803b1580156103ca57600080fd5b8760071415610765576003546040805160e060020a6340c10f19028152336004820152604b60248201529051600160a060020a03909216916340c10f19916044808201926020929091908290030181600087803b1580156106e257600080fd5b505af11580156106f6573d6000803e3d6000fd5b505050506040513d602081101561070c57600080fd5b50506009546040805160e060020a6340c10f19028152336004820152600a60248201529051600160a060020a03909216916340c10f19916044808201926020929091908290030181600087803b1580156103ca57600080fd5b8760081415610848576003546040805160e060020a6340c10f19028152336004820152604b60248201529051600160a060020a03909216916340c10f19916044808201926020929091908290030181600087803b1580156107c557600080fd5b505af11580156107d9573d6000803e3d6000fd5b505050506040513d60208110156107ef57600080fd5b50506006546040805160e060020a6340c10f19028152336004820152600a60248201529051600160a060020a03909216916340c10f19916044808201926020929091908290030181600087803b1580156103ca57600080fd5b876009141561092b576003546040805160e060020a6340c10f19028152336004820152604b60248201529051600160a060020a03909216916340c10f19916044808201926020929091908290030181600087803b1580156108a857600080fd5b505af11580156108bc573d6000803e3d6000fd5b505050506040513d60208110156108d257600080fd5b5050600a80546040805160e060020a6340c10f19028152336004820152602481019390935251600160a060020a03909116916340c10f199160448083019260209291908290030181600087803b1580156103ca57600080fd5b87600a1415610a0e576003546040805160e060020a6340c10f19028152336004820152604b60248201529051600160a060020a03909216916340c10f19916044808201926020929091908290030181600087803b15801561098b57600080fd5b505af115801561099f573d6000803e3d6000fd5b505050506040513d60208110156109b557600080fd5b50506008546040805160e060020a6340c10f19028152336004820152600a60248201529051600160a060020a03909216916340c10f19916044808201926020929091908290030181600087803b1580156103ca57600080fd5b87600b1415610cfe576003546040805160e060020a6340c10f190281523360048201526101c260248201529051600160a060020a03909216916340c10f19916044808201926020929091908290030181600087803b158015610a6f57600080fd5b505af1158015610a83573d6000803e3d6000fd5b505050506040513d6020811015610a9957600080fd5b50506005546040805160e060020a6340c10f19028152336004820152600a60248201529051600160a060020a03909216916340c10f19916044808201926020929091908290030181600087803b158015610af257600080fd5b505af1158015610b06573d6000803e3d6000fd5b505050506040513d6020811015610b1c57600080fd5b50506006546040805160e060020a6340c10f19028152336004820152600a60248201529051600160a060020a03909216916340c10f19916044808201926020929091908290030181600087803b158015610b7557600080fd5b505af1158015610b89573d6000803e3d6000fd5b505050506040513d6020811015610b9f57600080fd5b50506007546040805160e060020a6340c10f19028152336004820152600a60248201529051600160a060020a03909216916340c10f19916044808201926020929091908290030181600087803b158015610bf857600080fd5b505af1158015610c0c573d6000803e3d6000fd5b505050506040513d6020811015610c2257600080fd5b50506008546040805160e060020a6340c10f19028152336004820152600a60248201529051600160a060020a03909216916340c10f19916044808201926020929091908290030181600087803b158015610c7b57600080fd5b505af1158015610c8f573d6000803e3d6000fd5b505050506040513d6020811015610ca557600080fd5b50506009546040805160e060020a6340c10f19028152336004820152600a60248201529051600160a060020a03909216916340c10f19916044808201926020929091908290030181600087803b1580156108a857600080fd5b87600c1415610d5f576003546040805160e060020a6340c10f190281523360048201526101c260248201529051600160a060020a03909216916340c10f19916044808201926020929091908290030181600087803b158015610a6f57600080fd5b87600d1415611156576003546040805160e060020a6340c10f190281523360048201526101c260248201529051600160a060020a03909216916340c10f19916044808201926020929091908290030181600087803b158015610dc057600080fd5b505af1158015610dd4573d6000803e3d6000fd5b505050506040513d6020811015610dea57600080fd5b50506005546040805160e060020a6340c10f19028152336004820152600a60248201529051600160a060020a03909216916340c10f19916044808201926020929091908290030181600087803b158015610e4357600080fd5b505af1158015610e57573d6000803e3d6000fd5b505050506040513d6020811015610e6d57600080fd5b50506006546040805160e060020a6340c10f19028152336004820152600a60248201529051600160a060020a03909216916340c10f19916044808201926020929091908290030181600087803b158015610ec657600080fd5b505af1158015610eda573d6000803e3d6000fd5b505050506040513d6020811015610ef057600080fd5b50506007546040805160e060020a6340c10f19028152336004820152600a60248201529051600160a060020a03909216916340c10f19916044808201926020929091908290030181600087803b158015610f4957600080fd5b505af1158015610f5d573d6000803e3d6000fd5b505050506040513d6020811015610f7357600080fd5b50506008546040805160e060020a6340c10f19028152336004820152600a60248201529051600160a060020a03909216916340c10f19916044808201926020929091908290030181600087803b158015610fcc57600080fd5b505af1158015610fe0573d6000803e3d6000fd5b505050506040513d6020811015610ff657600080fd5b50506009546040805160e060020a6340c10f19028152336004820152600a60248201529051600160a060020a03909216916340c10f19916044808201926020929091908290030181600087803b15801561104f57600080fd5b505af1158015611063573d6000803e3d6000fd5b505050506040513d602081101561107957600080fd5b5050600a80546040805160e060020a6340c10f19028152336004820152602481019390935251600160a060020a03909116916340c10f199160448083019260209291908290030181600087803b1580156110d257600080fd5b505af11580156110e6573d6000803e3d6000fd5b505050506040513d60208110156110fc57600080fd5b5050600480546040805160e060020a6340c10f190281523393810193909352601e602484015251600160a060020a03909116916340c10f199160448083019260209291908290030181600087803b1580156103ca57600080fd5b87600e14156111b7576003546040805160e060020a6340c10f190281523360048201526101c260248201529051600160a060020a03909216916340c10f19916044808201926020929091908290030181600087803b158015610dc057600080fd5b87600f1415611218576003546040805160e060020a6340c10f190281523360048201526101c260248201529051600160a060020a03909216916340c10f19916044808201926020929091908290030181600087803b158015610dc057600080fd5b8760101415611279576003546040805160e060020a6340c10f190281523360048201526101c260248201529051600160a060020a03909216916340c10f19916044808201926020929091908290030181600087803b158015610dc057600080fd5b876011141561169d576003546040805160e060020a6340c10f190281523360048201526101c260248201529051600160a060020a03909216916340c10f19916044808201926020929091908290030181600087803b1580156112da57600080fd5b505af11580156112ee573d6000803e3d6000fd5b505050506040513d602081101561130457600080fd5b50506005546040805160e060020a6340c10f19028152336004820152600a60248201529051600160a060020a03909216916340c10f19916044808201926020929091908290030181600087803b15801561135d57600080fd5b505af1158015611371573d6000803e3d6000fd5b505050506040513d602081101561138757600080fd5b50506006546040805160e060020a6340c10f19028152336004820152600a60248201529051600160a060020a03909216916340c10f19916044808201926020929091908290030181600087803b1580156113e057600080fd5b505af11580156113f4573d6000803e3d6000fd5b505050506040513d602081101561140a57600080fd5b50506007546040805160e060020a6340c10f19028152336004820152600a60248201529051600160a060020a03909216916340c10f19916044808201926020929091908290030181600087803b15801561146357600080fd5b505af1158015611477573d6000803e3d6000fd5b505050506040513d602081101561148d57600080fd5b50506008546040805160e060020a6340c10f19028152336004820152600a60248201529051600160a060020a03909216916340c10f19916044808201926020929091908290030181600087803b1580156114e657600080fd5b505af11580156114fa573d6000803e3d6000fd5b505050506040513d602081101561151057600080fd5b50506009546040805160e060020a6340c10f19028152336004820152600a60248201529051600160a060020a03909216916340c10f19916044808201926020929091908290030181600087803b15801561156957600080fd5b505af115801561157d573d6000803e3d6000fd5b505050506040513d602081101561159357600080fd5b5050600a80546040805160e060020a6340c10f19028152336004820152602481019390935251600160a060020a03909116916340c10f199160448083019260209291908290030181600087803b1580156115ec57600080fd5b505af1158015611600573d6000803e3d6000fd5b505050506040513d602081101561161657600080fd5b5050600480546040805160e060020a6340c10f190281523393810193909352601e602484015251600160a060020a03909116916340c10f199160448083019260209291908290030181600087803b15801561167057600080fd5b505af1158015611684573d6000803e3d6000fd5b505050506040513d602081101561169a57600080fd5b50505b600388106117c0576000821115611732576003546040805160e060020a6340c10f19028152336004820152602481018590529051600160a060020a03909216916340c10f19916044808201926020929091908290030181600087803b15801561170557600080fd5b505af1158015611719573d6000803e3d6000fd5b505050506040513d602081101561172f57600080fd5b50505b60008111156117c057600480546040805160e060020a6340c10f1902815233938101939093526024830184905251600160a060020a03909116916340c10f199160448083019260209291908290030181600087803b15801561179357600080fd5b505af11580156117a7573d6000803e3d6000fd5b505050506040513d60208110156117bd57600080fd5b50505b600089815260026020908152604080832080546001908101909155815184815280840180845288905260ff891681840152606081018b9052608081018a905291517f93cd4b6d6f417153041e82e6d42f720f23fefc7d5fd0d422daebe71f15d0d3bd9433948f948f948f948c94919360a0808501949193601f19840193928390039091019190865af115801561185a573d6000803e3d6000fd5b505060408051601f19810151600154600160a060020a03998a168352602083019890985281830196909652606081019490945260808401929092525091841660a08201529290911660c0830152519081900360e00190a15050505050505050505600a165627a7a72305820e4f1744904d34c8ea679a95df6c033ae94156299209b32b371be3d98dfd2250d0029",
  "sourcePath": "/Users/hyper/projects/loom/CardFaucet/contracts/KickstarterRewardClaim.sol",
  "compiler": {
    "name": "solc",
    "version": "0.4.24+commit.e67f0147.Emscripten.clang"
  },
  "schemaVersion": "2.0.1",
  "updatedAt": "2018-09-11T11:03:04.773Z"
}