{
  "contractName": "MigratedZBGCard",
  "abi": [
    {
      "constant": true,
      "inputs": [
        {
          "name": "_interfaceId",
          "type": "bytes4"
        }
      ],
      "name": "supportsInterface",
      "outputs": [
        {
          "name": "",
          "type": "bool"
        }
      ],
      "payable": false,
      "stateMutability": "view",
      "type": "function"
    },
    {
      "constant": true,
      "inputs": [],
      "name": "name",
      "outputs": [
        {
          "name": "",
          "type": "string"
        }
      ],
      "payable": false,
      "stateMutability": "view",
      "type": "function"
    },
    {
      "constant": true,
      "inputs": [
        {
          "name": "_tokenId",
          "type": "uint256"
        }
      ],
      "name": "getApproved",
      "outputs": [
        {
          "name": "",
          "type": "address"
        }
      ],
      "payable": false,
      "stateMutability": "view",
      "type": "function"
    },
    {
      "constant": false,
      "inputs": [
        {
          "name": "_to",
          "type": "address"
        },
        {
          "name": "_tokenId",
          "type": "uint256"
        },
        {
          "name": "_amount",
          "type": "uint256"
        }
      ],
      "name": "transfer",
      "outputs": [],
      "payable": false,
      "stateMutability": "nonpayable",
      "type": "function"
    },
    {
      "constant": false,
      "inputs": [
        {
          "name": "_to",
          "type": "address"
        },
        {
          "name": "_tokenId",
          "type": "uint256"
        }
      ],
      "name": "approve",
      "outputs": [],
      "payable": false,
      "stateMutability": "nonpayable",
      "type": "function"
    },
    {
      "constant": false,
      "inputs": [
        {
          "name": "_from",
          "type": "address"
        },
        {
          "name": "_to",
          "type": "address"
        },
        {
          "name": "_tokenId",
          "type": "uint256"
        },
        {
          "name": "_amount",
          "type": "uint256"
        }
      ],
      "name": "safeTransferFrom",
      "outputs": [],
      "payable": false,
      "stateMutability": "nonpayable",
      "type": "function"
    },
    {
      "constant": true,
      "inputs": [],
      "name": "implementsERC721",
      "outputs": [
        {
          "name": "",
          "type": "bool"
        }
      ],
      "payable": false,
      "stateMutability": "pure",
      "type": "function"
    },
    {
      "constant": false,
      "inputs": [
        {
          "name": "_token",
          "type": "address"
        }
      ],
      "name": "toggleToken",
      "outputs": [],
      "payable": false,
      "stateMutability": "nonpayable",
      "type": "function"
    },
    {
      "constant": true,
      "inputs": [
        {
          "name": "_tokenId",
          "type": "uint256"
        }
      ],
      "name": "individualSupply",
      "outputs": [
        {
          "name": "",
          "type": "uint256"
        }
      ],
      "payable": false,
      "stateMutability": "view",
      "type": "function"
    },
    {
      "constant": false,
      "inputs": [
        {
          "name": "_from",
          "type": "address"
        },
        {
          "name": "_to",
          "type": "address"
        },
        {
          "name": "_tokenIds",
          "type": "uint256[]"
        },
        {
          "name": "_amounts",
          "type": "uint256[]"
        }
      ],
      "name": "batchTransferFrom",
      "outputs": [],
      "payable": false,
      "stateMutability": "nonpayable",
      "type": "function"
    },
    {
      "constant": true,
      "inputs": [],
      "name": "totalSupply",
      "outputs": [
        {
          "name": "",
          "type": "uint256"
        }
      ],
      "payable": false,
      "stateMutability": "view",
      "type": "function"
    },
    {
      "constant": true,
      "inputs": [],
      "name": "InterfaceId_ERC165",
      "outputs": [
        {
          "name": "",
          "type": "bytes4"
        }
      ],
      "payable": false,
      "stateMutability": "view",
      "type": "function"
    },
    {
      "constant": false,
      "inputs": [
        {
          "name": "_tokenId",
          "type": "uint256"
        },
        {
          "name": "_tokenDNA",
          "type": "uint256"
        }
      ],
      "name": "mintToken",
      "outputs": [],
      "payable": false,
      "stateMutability": "nonpayable",
      "type": "function"
    },
    {
      "constant": true,
      "inputs": [
        {
          "name": "_owner",
          "type": "address"
        }
      ],
      "name": "tokensOwned",
      "outputs": [
        {
          "name": "indexes",
          "type": "uint256[]"
        },
        {
          "name": "balances",
          "type": "uint256[]"
        }
      ],
      "payable": false,
      "stateMutability": "view",
      "type": "function"
    },
    {
      "constant": false,
      "inputs": [
        {
          "name": "_from",
          "type": "address"
        },
        {
          "name": "_to",
          "type": "address"
        },
        {
          "name": "_tokenId",
          "type": "uint256"
        }
      ],
      "name": "transferFrom",
      "outputs": [],
      "payable": false,
      "stateMutability": "nonpayable",
      "type": "function"
    },
    {
      "constant": false,
      "inputs": [
        {
          "name": "_from",
          "type": "address"
        },
        {
          "name": "_to",
          "type": "address"
        },
        {
          "name": "_tokenIds",
          "type": "uint256[]"
        },
        {
          "name": "_amounts",
          "type": "uint256[]"
        },
        {
          "name": "_data",
          "type": "bytes"
        }
      ],
      "name": "safeBatchTransferFrom",
      "outputs": [],
      "payable": false,
      "stateMutability": "nonpayable",
      "type": "function"
    },
    {
      "constant": true,
      "inputs": [
        {
          "name": "_owner",
          "type": "address"
        },
        {
          "name": "_index",
          "type": "uint256"
        }
      ],
      "name": "tokenOfOwnerByIndex",
      "outputs": [
        {
          "name": "_tokenId",
          "type": "uint256"
        }
      ],
      "payable": false,
      "stateMutability": "view",
      "type": "function"
    },
    {
      "constant": false,
      "inputs": [
        {
          "name": "_from",
          "type": "address"
        },
        {
          "name": "_to",
          "type": "address"
        },
        {
          "name": "_tokenId",
          "type": "uint256"
        }
      ],
      "name": "safeTransferFrom",
      "outputs": [],
      "payable": false,
      "stateMutability": "nonpayable",
      "type": "function"
    },
    {
      "constant": false,
      "inputs": [
        {
          "name": "_tokenId",
          "type": "uint256"
        },
        {
          "name": "amount",
          "type": "uint256"
        }
      ],
      "name": "depositToGateway",
      "outputs": [],
      "payable": false,
      "stateMutability": "nonpayable",
      "type": "function"
    },
    {
      "constant": false,
      "inputs": [
        {
          "name": "_tokenIds",
          "type": "uint256[]"
        },
        {
          "name": "_tokenDNAs",
          "type": "uint256[]"
        }
      ],
      "name": "batchMintToken",
      "outputs": [],
      "payable": false,
      "stateMutability": "nonpayable",
      "type": "function"
    },
    {
      "constant": true,
      "inputs": [
        {
          "name": "_tokenId",
          "type": "uint256"
        }
      ],
      "name": "exists",
      "outputs": [
        {
          "name": "",
          "type": "bool"
        }
      ],
      "payable": false,
      "stateMutability": "view",
      "type": "function"
    },
    {
      "constant": true,
      "inputs": [
        {
          "name": "_index",
          "type": "uint256"
        }
      ],
      "name": "tokenByIndex",
      "outputs": [
        {
          "name": "",
          "type": "uint256"
        }
      ],
      "payable": false,
      "stateMutability": "view",
      "type": "function"
    },
    {
      "constant": true,
      "inputs": [],
      "name": "numValidators",
      "outputs": [
        {
          "name": "",
          "type": "uint256"
        }
      ],
      "payable": false,
      "stateMutability": "view",
      "type": "function"
    },
    {
      "constant": true,
      "inputs": [
        {
          "name": "_tokenId",
          "type": "uint256"
        }
      ],
      "name": "ownerOf",
      "outputs": [
        {
          "name": "",
          "type": "address"
        }
      ],
      "payable": false,
      "stateMutability": "view",
      "type": "function"
    },
    {
      "constant": true,
      "inputs": [
        {
          "name": "",
          "type": "uint256"
        }
      ],
      "name": "tokenIdToDNA",
      "outputs": [
        {
          "name": "",
          "type": "uint256"
        }
      ],
      "payable": false,
      "stateMutability": "view",
      "type": "function"
    },
    {
      "constant": true,
      "inputs": [
        {
          "name": "_owner",
          "type": "address"
        }
      ],
      "name": "balanceOf",
      "outputs": [
        {
          "name": "balance",
          "type": "uint256"
        }
      ],
      "payable": false,
      "stateMutability": "view",
      "type": "function"
    },
    {
      "constant": true,
      "inputs": [
        {
          "name": "_address",
          "type": "address"
        },
        {
          "name": "_tokenId",
          "type": "uint256"
        }
      ],
      "name": "balanceOfCoin",
      "outputs": [
        {
          "name": "",
          "type": "uint256"
        }
      ],
      "payable": false,
      "stateMutability": "view",
      "type": "function"
    },
    {
      "constant": false,
      "inputs": [],
      "name": "renounceOwnership",
      "outputs": [],
      "payable": false,
      "stateMutability": "nonpayable",
      "type": "function"
    },
    {
      "constant": true,
      "inputs": [
        {
          "name": "_address",
          "type": "address"
        }
      ],
      "name": "checkValidator",
      "outputs": [
        {
          "name": "",
          "type": "bool"
        }
      ],
      "payable": false,
      "stateMutability": "view",
      "type": "function"
    },
    {
      "constant": true,
      "inputs": [
        {
          "name": "",
          "type": "address"
        }
      ],
      "name": "nonces",
      "outputs": [
        {
          "name": "",
          "type": "uint256"
        }
      ],
      "payable": false,
      "stateMutability": "view",
      "type": "function"
    },
    {
      "constant": true,
      "inputs": [],
      "name": "implementsERC721X",
      "outputs": [
        {
          "name": "",
          "type": "bool"
        }
      ],
      "payable": false,
      "stateMutability": "pure",
      "type": "function"
    },
    {
      "constant": false,
      "inputs": [
        {
          "name": "_faucet",
          "type": "address"
        }
      ],
      "name": "disableFaucet",
      "outputs": [],
      "payable": false,
      "stateMutability": "nonpayable",
      "type": "function"
    },
    {
      "constant": true,
      "inputs": [
        {
          "name": "_tokenId",
          "type": "uint256"
        }
      ],
      "name": "getTokenDetailsById",
      "outputs": [
        {
          "name": "",
          "type": "uint256"
        },
        {
          "name": "",
          "type": "uint256"
        },
        {
          "name": "",
          "type": "uint256"
        },
        {
          "name": "",
          "type": "uint256"
        }
      ],
      "payable": false,
      "stateMutability": "view",
      "type": "function"
    },
    {
      "constant": true,
      "inputs": [],
      "name": "owner",
      "outputs": [
        {
          "name": "",
          "type": "address"
        }
      ],
      "payable": false,
      "stateMutability": "view",
      "type": "function"
    },
    {
      "constant": false,
      "inputs": [
        {
          "name": "_validator",
          "type": "address"
        },
        {
          "name": "_v",
          "type": "uint8[]"
        },
        {
          "name": "_r",
          "type": "bytes32[]"
        },
        {
          "name": "_s",
          "type": "bytes32[]"
        }
      ],
      "name": "addValidator",
      "outputs": [],
      "payable": false,
      "stateMutability": "nonpayable",
      "type": "function"
    },
    {
      "constant": true,
      "inputs": [],
      "name": "symbol",
      "outputs": [
        {
          "name": "",
          "type": "string"
        }
      ],
      "payable": false,
      "stateMutability": "view",
      "type": "function"
    },
    {
      "constant": false,
      "inputs": [
        {
          "name": "_operator",
          "type": "address"
        },
        {
          "name": "_approved",
          "type": "bool"
        }
      ],
      "name": "setApprovalForAll",
      "outputs": [],
      "payable": false,
      "stateMutability": "nonpayable",
      "type": "function"
    },
    {
      "constant": true,
      "inputs": [],
      "name": "nonce",
      "outputs": [
        {
          "name": "",
          "type": "uint256"
        }
      ],
      "payable": false,
      "stateMutability": "view",
      "type": "function"
    },
    {
      "constant": false,
      "inputs": [
        {
          "name": "_tokenId",
          "type": "uint256"
        },
        {
          "name": "_amount",
          "type": "uint256"
        },
        {
          "name": "_sig",
          "type": "bytes"
        }
      ],
      "name": "claimToken",
      "outputs": [],
      "payable": false,
      "stateMutability": "nonpayable",
      "type": "function"
    },
    {
      "constant": false,
      "inputs": [
        {
          "name": "_from",
          "type": "address"
        },
        {
          "name": "_to",
          "type": "address"
        },
        {
          "name": "_tokenId",
          "type": "uint256"
        },
        {
          "name": "_data",
          "type": "bytes"
        }
      ],
      "name": "safeTransferFrom",
      "outputs": [],
      "payable": false,
      "stateMutability": "nonpayable",
      "type": "function"
    },
    {
      "constant": false,
      "inputs": [
        {
          "name": "_validator",
          "type": "address"
        },
        {
          "name": "_v",
          "type": "uint8[]"
        },
        {
          "name": "_r",
          "type": "bytes32[]"
        },
        {
          "name": "_s",
          "type": "bytes32[]"
        }
      ],
      "name": "removeValidator",
      "outputs": [],
      "payable": false,
      "stateMutability": "nonpayable",
      "type": "function"
    },
    {
      "constant": true,
      "inputs": [
        {
          "name": "_tokenId",
          "type": "uint256"
        }
      ],
      "name": "tokenURI",
      "outputs": [
        {
          "name": "tokenUri",
          "type": "string"
        }
      ],
      "payable": false,
      "stateMutability": "view",
      "type": "function"
    },
    {
      "constant": true,
      "inputs": [
        {
          "name": "_tokenId",
          "type": "uint256"
        }
      ],
      "name": "isLimitedEdition",
      "outputs": [
        {
          "name": "",
          "type": "bool"
        }
      ],
      "payable": false,
      "stateMutability": "view",
      "type": "function"
    },
    {
      "constant": false,
      "inputs": [
        {
          "name": "_faucet",
          "type": "address"
        }
      ],
      "name": "enableFaucet",
      "outputs": [],
      "payable": false,
      "stateMutability": "nonpayable",
      "type": "function"
    },
    {
      "constant": true,
      "inputs": [
        {
          "name": "",
          "type": "address"
        }
      ],
      "name": "allowedTokens",
      "outputs": [
        {
          "name": "",
          "type": "bool"
        }
      ],
      "payable": false,
      "stateMutability": "view",
      "type": "function"
    },
    {
      "constant": true,
      "inputs": [
        {
          "name": "_owner",
          "type": "address"
        },
        {
          "name": "_operator",
          "type": "address"
        }
      ],
      "name": "isApprovedForAll",
      "outputs": [
        {
          "name": "isOperator",
          "type": "bool"
        }
      ],
      "payable": false,
      "stateMutability": "view",
      "type": "function"
    },
    {
      "constant": false,
      "inputs": [
        {
          "name": "_tokenId",
          "type": "uint256"
        },
        {
          "name": "_sig",
          "type": "bytes"
        }
      ],
      "name": "claimTokenNFT",
      "outputs": [],
      "payable": false,
      "stateMutability": "nonpayable",
      "type": "function"
    },
    {
      "constant": false,
      "inputs": [
        {
          "name": "_from",
          "type": "address"
        },
        {
          "name": "_to",
          "type": "address"
        },
        {
          "name": "_tokenId",
          "type": "uint256"
        },
        {
          "name": "_amount",
          "type": "uint256"
        },
        {
          "name": "_data",
          "type": "bytes"
        }
      ],
      "name": "safeTransferFrom",
      "outputs": [],
      "payable": false,
      "stateMutability": "nonpayable",
      "type": "function"
    },
    {
      "constant": false,
      "inputs": [
        {
          "name": "_newOwner",
          "type": "address"
        }
      ],
      "name": "transferOwnership",
      "outputs": [],
      "payable": false,
      "stateMutability": "nonpayable",
      "type": "function"
    },
    {
      "constant": false,
      "inputs": [
        {
          "name": "_from",
          "type": "address"
        },
        {
          "name": "_to",
          "type": "address"
        },
        {
          "name": "_tokenId",
          "type": "uint256"
        },
        {
          "name": "_amount",
          "type": "uint256"
        }
      ],
      "name": "transferFrom",
      "outputs": [],
      "payable": false,
      "stateMutability": "nonpayable",
      "type": "function"
    },
    {
      "inputs": [
        {
          "name": "_gateway",
          "type": "address"
        },
        {
          "name": "_validators",
          "type": "address[]"
        },
        {
          "name": "_threshold_num",
          "type": "uint8"
        },
        {
          "name": "_threshold_denom",
          "type": "uint8"
        }
      ],
      "payable": false,
      "stateMutability": "nonpayable",
      "type": "constructor"
    },
    {
      "anonymous": false,
      "inputs": [],
      "name": "MigrationStopped",
      "type": "event"
    },
    {
      "anonymous": false,
      "inputs": [
        {
          "indexed": true,
          "name": "tokenId",
          "type": "uint256"
        },
        {
          "indexed": true,
          "name": "supply",
          "type": "uint256"
        }
      ],
      "name": "TokenMinted",
      "type": "event"
    },
    {
      "anonymous": false,
      "inputs": [
        {
          "indexed": true,
          "name": "tokenId",
          "type": "uint256"
        },
        {
          "indexed": false,
          "name": "claimer",
          "type": "address"
        },
        {
          "indexed": false,
          "name": "amount",
          "type": "uint256"
        }
      ],
      "name": "TokenClaimed",
      "type": "event"
    },
    {
      "anonymous": false,
      "inputs": [
        {
          "indexed": false,
          "name": "isApproved",
          "type": "bool"
        }
      ],
      "name": "FaucetToggled",
      "type": "event"
    },
    {
      "anonymous": false,
      "inputs": [
        {
          "indexed": false,
          "name": "validator",
          "type": "address"
        }
      ],
      "name": "AddedValidator",
      "type": "event"
    },
    {
      "anonymous": false,
      "inputs": [
        {
          "indexed": false,
          "name": "validator",
          "type": "address"
        }
      ],
      "name": "RemovedValidator",
      "type": "event"
    },
    {
      "anonymous": false,
      "inputs": [
        {
          "indexed": true,
          "name": "previousOwner",
          "type": "address"
        }
      ],
      "name": "OwnershipRenounced",
      "type": "event"
    },
    {
      "anonymous": false,
      "inputs": [
        {
          "indexed": true,
          "name": "previousOwner",
          "type": "address"
        },
        {
          "indexed": true,
          "name": "newOwner",
          "type": "address"
        }
      ],
      "name": "OwnershipTransferred",
      "type": "event"
    },
    {
      "anonymous": false,
      "inputs": [
        {
          "indexed": false,
          "name": "from",
          "type": "address"
        },
        {
          "indexed": false,
          "name": "to",
          "type": "address"
        },
        {
          "indexed": false,
          "name": "tokenTypes",
          "type": "uint256[]"
        },
        {
          "indexed": false,
          "name": "amounts",
          "type": "uint256[]"
        }
      ],
      "name": "BatchTransfer",
      "type": "event"
    },
    {
      "anonymous": false,
      "inputs": [
        {
          "indexed": true,
          "name": "from",
          "type": "address"
        },
        {
          "indexed": true,
          "name": "to",
          "type": "address"
        },
        {
          "indexed": true,
          "name": "tokenId",
          "type": "uint256"
        },
        {
          "indexed": false,
          "name": "quantity",
          "type": "uint256"
        }
      ],
      "name": "TransferToken",
      "type": "event"
    },
    {
      "anonymous": false,
      "inputs": [
        {
          "indexed": true,
          "name": "_from",
          "type": "address"
        },
        {
          "indexed": true,
          "name": "_to",
          "type": "address"
        },
        {
          "indexed": true,
          "name": "_tokenId",
          "type": "uint256"
        }
      ],
      "name": "Transfer",
      "type": "event"
    },
    {
      "anonymous": false,
      "inputs": [
        {
          "indexed": true,
          "name": "_owner",
          "type": "address"
        },
        {
          "indexed": true,
          "name": "_approved",
          "type": "address"
        },
        {
          "indexed": true,
          "name": "_tokenId",
          "type": "uint256"
        }
      ],
      "name": "Approval",
      "type": "event"
    },
    {
      "anonymous": false,
      "inputs": [
        {
          "indexed": true,
          "name": "_owner",
          "type": "address"
        },
        {
          "indexed": true,
          "name": "_operator",
          "type": "address"
        },
        {
          "indexed": false,
          "name": "_approved",
          "type": "bool"
        }
      ],
      "name": "ApprovalForAll",
      "type": "event"
    },
    {
      "constant": false,
      "inputs": [
        {
          "name": "_tokenIds",
          "type": "uint256[]"
        },
        {
          "name": "_receivers",
          "type": "address[]"
        },
        {
          "name": "_amounts",
          "type": "uint256[]"
        }
      ],
      "name": "migrateTokens",
      "outputs": [],
      "payable": false,
      "stateMutability": "nonpayable",
      "type": "function"
    },
    {
      "constant": false,
      "inputs": [],
      "name": "stopMigration",
      "outputs": [],
      "payable": false,
      "stateMutability": "nonpayable",
      "type": "function"
    }
  ],
  "bytecode": "0x60806040526010805460ff191690553480156200001b57600080fd5b50604051620040f6380380620040f683398101604090815281516020830151918301516060840151919392909201919083838383828282600080620000897f01ffc9a70000000000000000000000000000000000000000000000000000000064010000000062000298810204565b620000bd7f5b5e139f0000000000000000000000000000000000000000000000000000000064010000000062000298810204565b60078054600160a060020a031916331790558451915060008211620000e157600080fd5b50600b805460ff8481166101000261ff001991871660ff19909316929092171617905560005b81811015620001e85784516000908690839081106200012257fe5b60209081029091010151600160a060020a031614156200014157600080fd5b6001600a600087848151811015156200015657fe5b602090810291909101810151600160a060020a03168252810191909152604001600020805460ff191691151591909117905584517f8e15bf46bd11add443414ada75aa9592a4af68f3f2ec02ae3d49572f9843c2a890869083908110620001b957fe5b602090810290910181015160408051600160a060020a039092168252519081900390910190a160010162000107565b50509151600c555050600160a060020a03841615156200026957604080517f08c379a000000000000000000000000000000000000000000000000000000000815260206004820152601f60248201527f476174657761792073686f756c642062652076616c6964206164647265737300604482015290519081900360640190fd5b5050600e8054600160a060020a031916600160a060020a03939093169290921790915550620003059350505050565b7fffffffff000000000000000000000000000000000000000000000000000000008082161415620002c857600080fd5b7fffffffff00000000000000000000000000000000000000000000000000000000166000908152602081905260409020805460ff19166001179055565b613de180620003156000396000f3006080604052600436106102715763ffffffff7c010000000000000000000000000000000000000000000000000000000060003504166301ffc9a7811461027657806306fdde03146102ac578063081812fc14610336578063095bcdb61461036a578063095ea7b3146103935780630febdd49146103b75780631051db34146103e457806315c75f89146103f957806317be19331461041a57806317fad7fc1461044457806318160ddd146104e857806319fa8f50146104fd57806320cbf5f91461052f57806321cda7901461054a57806323b872dd146106045780632eb2c2d61461062e5780632f745c591461071057806342842e0e1461073457806345f0edb71461075e578063480cd004146107795780634f558e79146107a55780634f6ccce7146107bd5780635d593f8d146107d55780636352211e146107ea5780636e5ed9791461080257806370a082311461081a57806370af0e541461083b578063715018a61461085f578063797327ae146108745780637ecebe00146108955780637fb42a36146103e457806387a8af4e146108b65780638d43f0bf146108d75780638da5cb5b1461091557806390b616c81461092a57806395d89b411461096f578063a22cb46514610984578063a297d3d0146109aa578063affed0e0146109e2578063b68e6fea146109f7578063b88d4fde14610a1f578063c7e7f6f614610a8e578063c87b56dd14610ad3578063e19a7bc814610aeb578063e398142914610b00578063e4596dc414610b18578063e744092e14610b39578063e985e9c514610b5a578063ed186dd314610b81578063f242432a14610ba5578063f2fde38b14610c1c578063fe99049a14610c3d575b600080fd5b34801561028257600080fd5b50610298600160e060020a031960043516610c6a565b604080519115158252519081900360200190f35b3480156102b857600080fd5b506102c1610c8d565b6040805160208082528351818301528351919283929083019185019080838360005b838110156102fb5781810151838201526020016102e3565b50505050905090810190601f1680156103285780820380516001836020036101000a031916815260200191505b509250505060405180910390f35b34801561034257600080fd5b5061034e600435610cc4565b60408051600160a060020a039092168252519081900360200190f35b34801561037657600080fd5b50610391600160a060020a0360043516602435604435610cdf565b005b34801561039f57600080fd5b50610391600160a060020a0360043516602435610cf0565b3480156103c357600080fd5b50610391600160a060020a0360043581169060243516604435606435610da6565b3480156103f057600080fd5b50610298610dc9565b34801561040557600080fd5b50610391600160a060020a0360043516610dce565b34801561042657600080fd5b50610432600435610e0b565b60408051918252519081900360200190f35b34801561045057600080fd5b506040805160206004604435818101358381028086018501909652808552610391958335600160a060020a039081169660248035909216963696956064959294930192829185019084908082843750506040805187358901803560208181028481018201909552818452989b9a998901989297509082019550935083925085019084908082843750949750610e299650505050505050565b3480156104f457600080fd5b50610432610e35565b34801561050957600080fd5b50610512610e3b565b60408051600160e060020a03199092168252519081900360200190f35b34801561053b57600080fd5b50610391600435602435610e5f565b34801561055657600080fd5b5061056b600160a060020a0360043516610eb6565b604051808060200180602001838103835285818151815260200191508051906020019060200280838360005b838110156105af578181015183820152602001610597565b50505050905001838103825284818151815260200191508051906020019060200280838360005b838110156105ee5781810151838201526020016105d6565b5050505090500194505050505060405180910390f35b34801561061057600080fd5b50610391600160a060020a0360043581169060243516604435611093565b34801561063a57600080fd5b506040805160206004604435818101358381028086018501909652808552610391958335600160a060020a039081169660248035909216963696956064959294930192829185019084908082843750506040805187358901803560208181028481018201909552818452989b9a99890198929750908201955093508392508501908490808284375050604080516020601f89358b018035918201839004830284018301909452808352979a99988101979196509182019450925082915084018382808284375094975061109e9650505050505050565b34801561071c57600080fd5b50610432600160a060020a0360043516602435611295565b34801561074057600080fd5b50610391600160a060020a036004358116906024351660443561129d565b34801561076a57600080fd5b506103916004356024356112b9565b34801561078557600080fd5b506103916024600480358281019290820135918135918201910135611346565b3480156107b157600080fd5b506102986004356113a7565b3480156107c957600080fd5b506104326004356113bb565b3480156107e157600080fd5b506104326113f0565b3480156107f657600080fd5b5061034e6004356113f6565b34801561080e57600080fd5b50610432600435611480565b34801561082657600080fd5b50610432600160a060020a0360043516611492565b34801561084757600080fd5b50610432600160a060020a03600435166024356114a8565b34801561086b57600080fd5b506103916114f8565b34801561088057600080fd5b50610298600160a060020a0360043516611566565b3480156108a157600080fd5b50610432600160a060020a03600435166115a6565b3480156108c257600080fd5b50610391600160a060020a03600435166115b8565b3480156108e357600080fd5b506108ef6004356116a7565b604080519485526020850193909352838301919091526060830152519081900360800190f35b34801561092157600080fd5b5061034e6116d4565b34801561093657600080fd5b5061039160048035600160a060020a031690602480358082019290810135916044358082019290810135916064359081019101356116e3565b34801561097b57600080fd5b506102c1611921565b34801561099057600080fd5b50610391600160a060020a03600435166024351515611958565b3480156109b657600080fd5b5061039160246004803582810192908201359181358083019290820135916044359182019101356119c6565b3480156109ee57600080fd5b50610432611b0b565b348015610a0357600080fd5b5061039160048035906024803591604435918201910135611b11565b348015610a2b57600080fd5b50604080516020601f60643560048181013592830184900484028501840190955281845261039194600160a060020a038135811695602480359092169560443595369560849401918190840183828082843750949750611c9d9650505050505050565b348015610a9a57600080fd5b5061039160048035600160a060020a03169060248035808201929081013591604435808201929081013591606435908101910135611d30565b348015610adf57600080fd5b506102c1600435611f46565b348015610af757600080fd5b50610391611f74565b348015610b0c57600080fd5b50610298600435611fac565b348015610b2457600080fd5b50610391600160a060020a0360043516611fcc565b348015610b4557600080fd5b50610298600160a060020a03600435166120c2565b348015610b6657600080fd5b50610298600160a060020a03600435811690602435166120d7565b348015610b8d57600080fd5b50610391600480359060248035908101910135612105565b348015610bb157600080fd5b50604080516020601f60843560048181013592830184900484028501840190955281845261039194600160a060020a0381358116956024803590921695604435956064359536959460a494939101919081908401838280828437509497506122e79650505050505050565b348015610c2857600080fd5b50610391600160a060020a036004351661237c565b348015610c4957600080fd5b50610391600160a060020a036004358116906024351660443560643561239f565b600160e060020a0319811660009081526020819052604090205460ff165b919050565b60408051808201909152601681527f5a6f6d626965426174746c6567726f756e644361726400000000000000000000602082015290565b600090815260056020526040902054600160a060020a031690565b610ceb338484846123a7565b505050565b6000610cfb826113f6565b9050600160a060020a038381169082161415610d1657600080fd5b33600160a060020a0382161480610d325750610d3281336120d7565b1515610d3d57600080fd5b600082815260056020526040808220805473ffffffffffffffffffffffffffffffffffffffff1916600160a060020a0387811691821790925591518593918516917f8c5be1e5ebec7d5bd14f71427d1e84f3dd0314c0f7b2291e5b200ac8c7c3b92591a4505050565b610dc38484848460206040519081016040528060008152506122e7565b50505050565b600190565b610dd733611566565b1515610de257600080fd5b600160a060020a03166000908152600860205260409020805460ff19811660ff90911615179055565b6000818152600f6020526040812054610e2390612633565b92915050565b610dc38484848461264d565b60015490565b7f01ffc9a70000000000000000000000000000000000000000000000000000000081565b6000610e6a33611566565b1515610e7557600080fd5b610e7e82612633565b90508060011415610e9857610e938330612b0f565b610ea3565b610ea3833083612c45565b506000918252600f602052604090912055565b60608060006060806000806000606080610ece610e35565b975087604051908082528060200260200182016040528015610efa578160200160208202803883390190505b50965087604051908082528060200260200182016040528015610f27578160200160208202803883390190505b509550600093505b87841015610fb2576001805485908110610f4557fe5b906000526020600020015492506000610f5e8c856114a8565b1115610fa757610f6e8b846114a8565b8686815181101515610f7c57fe5b6020908102909101015286518390889087908110610f9657fe5b602090810290910101526001909401935b600190930192610f2f565b84604051908082528060200260200182016040528015610fdc578160200160208202803883390190505b50915084604051908082528060200260200182016040528015611009578160200160208202803883390190505b509050600093505b8484101561108457858481518110151561102757fe5b90602001906020020151828581518110151561103f57fe5b60209081029091010152865187908590811061105757fe5b90602001906020020151818581518110151561106f57fe5b60209081029091010152600190930192611011565b9a909950975050505050505050565b610ceb838383612d56565b60006110ac8686868661264d565b6110be85600160a060020a0316612e59565b1561128d576040517fb3b0f4c70000000000000000000000000000000000000000000000000000000081523360048201818152600160a060020a03898116602485015260a060448501908152885160a48601528851918a169463b3b0f4c794938c938b938b938b93926064820191608481019160c4909101906020808a01910280838360005b8381101561115c578181015183820152602001611144565b50505050905001848103835286818151815260200191508051906020019060200280838360005b8381101561119b578181015183820152602001611183565b50505050905001848103825285818151815260200191508051906020019080838360005b838110156111d75781810151838201526020016111bf565b50505050905090810190601f1680156112045780820380516001836020036101000a031916815260200191505b5098505050505050505050602060405180830381600087803b15801561122957600080fd5b505af115801561123d573d6000803e3d6000fd5b505050506040513d602081101561125357600080fd5b50519050600160e060020a031981167fe9e5be6a000000000000000000000000000000000000000000000000000000001461128d57600080fd5b505050505050565b600092915050565b610ceb8383836020604051908101604052806000815250611c9d565b6000828152600f60205260409020546112d190612633565b60011415611329576040805160e560020a62461bcd02815260206004820152601b60248201527f596f7520617265207472616e7366657272696e6720616e204e46540000000000604482015290519081900360640190fd5b600e54611342903390600160a060020a03168484610da6565b5050565b600061135133611566565b151561135c57600080fd5b5060005b838110156113a05761139885858381811061137757fe5b90506020020135848484818110151561138c57fe5b90506020020135610e5f565b600101611360565b5050505050565b600090815260066020526040902054151590565b60006113c5610e35565b82106113d057600080fd5b60018054839081106113de57fe5b90600052602060002001549050919050565b600c5481565b600081815260036020526040812054600160a060020a03161515611464576040805160e560020a62461bcd02815260206004820152601360248201527f436f696e20646f6573206e6f7420657869737400000000000000000000000000604482015290519081900360640190fd5b50600090815260036020526040902054600160a060020a031690565b600f6020526000908152604090205481565b6000606061149f83610eb6565b51949350505050565b60008060006114b684612e61565b600160a060020a038716600090815260026020908152604080832085845290915290205491935091506114ef908263ffffffff612e7216565b95945050505050565b600754600160a060020a0316331461150f57600080fd5b600754604051600160a060020a03909116907ff8df31144d9c2f0f6b59d69b8b98abd5459d07f2742c4df920b25aae33c6482090600090a26007805473ffffffffffffffffffffffffffffffffffffffff19169055565b600754600090600160a060020a038381169116141561158757506001610c88565b50600160a060020a03166000908152600a602052604090205460ff1690565b60096020526000908152604090205481565b6115c133611566565b15156115cc57600080fd5b306000908152600460209081526040808320600160a060020a038516845290915290205460ff161515611649576040805160e560020a62461bcd02815260206004820152600c60248201527f4e6f742061206661756365740000000000000000000000000000000000000000604482015290519081900360640190fd5b306000908152600460209081526040808320600160a060020a03851684528252808320805460ff191690558051928352517f87e7975983dfa9eadba810a775cce04da400ce8dcc3f201b0e2def605d58911d9281900390910190a150565b6000818152600f60205260408120548190819081906116c590612e88565b93509350935093509193509193565b600754600160a060020a031681565b604080517f61646400000000000000000000000000000000000000000000000000000000006020808301919091526c01000000000000000000000000600160a060020a038b160260238301528251601781840301815260379092019283905281516117a493918291908401908083835b602083106117725780518252601f199092019160209182019101611753565b6001836020036101000a0380198251168184511680821785525050505050509050019150506040518091039020612ee5565b8686808060200260200160405190810160405280939291908181526020018383602002808284375050604080516020808c0282810182019093528b82529095508b94508a93508392508501908490808284375050604080516020808b0282810182019093528a82529095508a945089935083925085019084908082843782019150505050505061183684848484612f9d565b600160a060020a038b166000908152600a602052604090205460ff16156118a7576040805160e560020a62461bcd02815260206004820152601360248201527f416c726561647920612076616c696461746f7200000000000000000000000000604482015290519081900360640190fd5b600160a060020a038b166000818152600a6020908152604091829020805460ff19166001908117909155600c80549091019055815192835290517f8e15bf46bd11add443414ada75aa9592a4af68f3f2ec02ae3d49572f9843c2a89281900390910190a15050600d80546001019055505050505050505050565b60408051808201909152600381527f5a42430000000000000000000000000000000000000000000000000000000000602082015290565b336000818152600460209081526040808320600160a060020a03871680855290835292819020805460ff1916861515908117909155815190815290519293927f17307eab39ab6107e8899845ad3d59bd9653f200f220920489ca2b5937696c31929181900390910190a35050565b6000806119d233611566565b15156119dd57600080fd5b60105460ff1615611a38576040805160e560020a62461bcd02815260206004820152601e60248201527f6461746120686173206265656e206d6967726174656420616c72656164790000604482015290519081900360640190fd5b8691508282148015611a4957508185145b1515611a9f576040805160e560020a62461bcd02815260206004820152601560248201527f496e76616c6964206172726179206c656e677468730000000000000000000000604482015290519081900360640190fd5b5060005b81811015611b0157611af9888883818110611aba57fe5b905060200201358787848181101515611acf57fe5b90506020020135600160a060020a03168686858181101515611aed57fe5b9050602002013561329c565b600101611aa3565b5050505050505050565b600d5481565b611b92848460405160200180807f636c61696d00000000000000000000000000000000000000000000000000000081525060050183815260200182815260200192505050604051602081830303815290604052604051808280519060200190808383602083106117725780518252601f199092019160209182019101611753565b82828080601f0160208091040260200160405190810160405280939291908181526020018383808284375060009450611bd893508692508591505063ffffffff61336b16565b600160a060020a0381166000908152600a602052604090205490915060ff161515611c73576040805160e560020a62461bcd02815260206004820152602160248201527f4d657373616765206e6f74207369676e656420627920612076616c696461746f60448201527f7200000000000000000000000000000000000000000000000000000000000000606482015290519081900360840190fd5b611c7e87338861329c565b5050336000908152600960205260409020805460010190555050505050565b611ca8848484612d56565b611cb4848484846135c7565b1515610dc3576040805160e560020a62461bcd02815260206004820152603260248201527f53656e7420746f206120636f6e7472616374207768696368206973206e6f742060448201527f616e204552433732312072656365697665720000000000000000000000000000606482015290519081900360840190fd5b604080517f72656d6f766500000000000000000000000000000000000000000000000000006020808301919091526c01000000000000000000000000600160a060020a038b160260268301528251601a818403018152603a909201928390528151611dbe9391829190840190808383602083106117725780518252601f199092019160209182019101611753565b8686808060200260200160405190810160405280939291908181526020018383602002808284375050604080516020808c0282810182019093528b82529095508b94508a93508392508501908490808284375050604080516020808b0282810182019093528a82529095508a9450899350839250850190849080828437820191505050505050611e5084848484612f9d565b600160a060020a038b166000908152600a602052604090205460ff161515611ec2576040805160e560020a62461bcd02815260206004820152600f60248201527f4e6f7420612076616c696461746f720000000000000000000000000000000000604482015290519081900360640190fd5b600c54600110611ed157600080fd5b600160a060020a038b166000818152600a6020908152604091829020805460ff19169055600c8054600019019055815192835290517fb625c55cf7e37b54fcd18bc4edafdf3f4f9acd59a5ec824c77c795dcb2d650709281900390910190a15050600d80546001019055505050505050505050565b6000818152600f602052604081205460609190611f6290613734565b9050611f6d81613741565b9392505050565b6010805460ff191660011790556040517f9bfcea2c03973b3a86fa004ee283c194c59d95caf3065736616f1e3a88c33e7190600090a1565b6000818152600f6020526040812054611fc490612633565b151592915050565b611fd533611566565b1515611fe057600080fd5b306000908152600460209081526040808320600160a060020a038516845290915290205460ff161561205c576040805160e560020a62461bcd02815260206004820152601360248201527f497320616c726561647920612066617563657400000000000000000000000000604482015290519081900360640190fd5b306000908152600460209081526040808320600160a060020a0385168452825291829020805460ff19166001908117909155825190815291517f87e7975983dfa9eadba810a775cce04da400ce8dcc3f201b0e2def605d58911d9281900390910190a150565b60086020526000908152604090205460ff1681565b600160a060020a03918216600090815260046020908152604080832093909416825291909152205460ff1690565b61217e8360405160200180807f636c61696d000000000000000000000000000000000000000000000000000000815250600501828152602001915050604051602081830303815290604052604051808280519060200190808383602083106117725780518252601f199092019160209182019101611753565b82828080601f01602080910402602001604051908101604052809392919081815260200183838082843750600094506121c493508692508591505063ffffffff61336b16565b600160a060020a0381166000908152600a602052604090205490915060ff16151561225f576040805160e560020a62461bcd02815260206004820152602160248201527f4d657373616765206e6f74207369676e656420627920612076616c696461746f60448201527f7200000000000000000000000000000000000000000000000000000000000000606482015290519081900360840190fd5b6000868152600360205260409020805473ffffffffffffffffffffffffffffffffffffffff19163390811790915561229a908790600161329c565b6040518690339030907fddf252ad1be2c89b69c2b068fc378daa952ba7f163c4a11628f55a4df523b3ef90600090a450503360009081526009602052604090208054600101905550505050565b6122f3858585856123a7565b612300858585858561391f565b15156113a0576040805160e560020a62461bcd02815260206004820152603360248201527f53656e7420746f206120636f6e7472616374207768696368206973206e6f742060448201527f616e204552433732315820726563656976657200000000000000000000000000606482015290519081900360840190fd5b600754600160a060020a0316331461239357600080fd5b61239c81613a96565b50565b610dc3848484845b8333600160a060020a03821614806123e25750600160a060020a038116600090815260046020908152604080832033845290915290205460ff165b151561245e576040805160e560020a62461bcd02815260206004820152602860248201527f6d73672e73656e646572206973206e656974686572205f66726f6d206e6f722060448201527f6f70657261746f72000000000000000000000000000000000000000000000000606482015290519081900360840190fd5b612467836113a7565b15156124bd576040805160e560020a62461bcd02815260206004820152601b60248201527f546f6b656e494420686173206e6f74206265656e206d696e7465640000000000604482015290519081900360640190fd5b600160a060020a038416151561251d576040805160e560020a62461bcd02815260206004820152601460248201527f496e76616c69642060746f602061646472657373000000000000000000000000604482015290519081900360640190fd5b61252683611fac565b8061253a5750600160a060020a0385163014155b156125d35761254985846114a8565b8211156125c6576040805160e560020a62461bcd02815260206004820152602260248201527f5175616e746974792067726561746572207468616e2066726f6d2062616c616e60448201527f6365000000000000000000000000000000000000000000000000000000000000606482015290519081900360840190fd5b6125d38584846001613b14565b6125e08484846000613b14565b8284600160a060020a031686600160a060020a03167f59158d23d62750f16cd67dd3dce5fcfeb193d88db7c46f085a2eac8fa5d8b950856040518082815260200191505060405180910390a45050505050565b6000612640826002613b8b565b60f060020a900492915050565b60008080808080808a33600160a060020a03821614806126905750600160a060020a038116600090815260046020908152604080832033845290915290205460ff165b151561270c576040805160e560020a62461bcd02815260206004820152602860248201527f6d73672e73656e646572206973206e656974686572205f66726f6d206e6f722060448201527f6f70657261746f72000000000000000000000000000000000000000000000000606482015290519081900360840190fd5b88518a511461278b576040805160e560020a62461bcd02815260206004820152602660248201527f496e636f6e73697374656e74206172726179206c656e6774682062657477656560448201527f6e20617267730000000000000000000000000000000000000000000000000000606482015290519081900360840190fd5b600160a060020a038b1615156127eb576040805160e560020a62461bcd02815260206004820152601160248201527f496e76616c696420726563697069656e74000000000000000000000000000000604482015290519081900360640190fd5b61280c8a60008151811015156127fd57fe5b90602001906020020151612e61565b600160a060020a038e1660009081526002602090815260408083208584529091528120548c51939b50919950612859928a918d91811061284857fe5b906020019060200201516001613bb4565b600160a060020a038c1660009081526002602090815260408083208c84529091528120548b519298506128a69290918a918d9190811061289557fe5b906020019060200201516000613bb4565b945089519350879250600191505b8382101561299c576128cd8a838151811015156127fd57fe5b909850965082881461293557600160a060020a038c811660009081526002602081815260408084208885528083528185209b909b55938f1683529081528282209582528581528282209790975589815296865280872054939095529390942054909390928691905b612961878a8481518110151561294757fe5b60209081029091010151889190600163ffffffff613bb416565b955061298f878a8481518110151561297557fe5b60209081029091010151879190600063ffffffff613bb416565b94506001909101906128b4565b85600260008e600160a060020a0316600160a060020a0316815260200190815260200160002060008a81526020019081526020016000208190555084600260008d600160a060020a0316600160a060020a0316815260200190815260200160002060008a8152602001908152602001600020819055507ff59807b2c31ca3ba212e90599175c120c556422950bac5be656274483e8581df8c8c8c8c6040518085600160a060020a0316600160a060020a0316815260200184600160a060020a0316600160a060020a031681526020018060200180602001838103835285818151815260200191508051906020019060200280838360005b83811015612aab578181015183820152602001612a93565b50505050905001838103825284818151815260200191508051906020019060200280838360005b83811015612aea578181015183820152602001612ad2565b50505050905001965050505050505060405180910390a1505050505050505050505050565b612b18826113a7565b15612b93576040805160e560020a62461bcd02815260206004820152602760248201527f4572726f723a20547269656420746f206d696e74206475706c6963617465207460448201527f6f6b656e20696400000000000000000000000000000000000000000000000000606482015290519081900360840190fd5b612ba1818360016002613b14565b6000828152600360209081526040808320805473ffffffffffffffffffffffffffffffffffffffff1916600160a060020a0386169081179091556006909252808320600190819055805480820182559084527fb10e2d527612073b26eecdfd717e6a320cf44b4afac2b0732d9fcbe2b7fa0cf60185905551849230917fddf252ad1be2c89b69c2b068fc378daa952ba7f163c4a11628f55a4df523b3ef9190a45050565b612c4e836113a7565b1515612c9b5760008381526006602052604081206002905560018054808201825591527fb10e2d527612073b26eecdfd717e6a320cf44b4afac2b0732d9fcbe2b7fa0cf601839055612d01565b600083815260066020526040902054600214612d01576040805160e560020a62461bcd02815260206004820152600860248201527f4e6f742061204654000000000000000000000000000000000000000000000000604482015290519081900360640190fd5b612d0e8284836002613b14565b6040805182815290518491600160a060020a0385169130917f59158d23d62750f16cd67dd3dce5fcfeb193d88db7c46f085a2eac8fa5d8b950919081900360200190a4505050565b612d6983612d63836113f6565b83613c9b565b1515612d7457600080fd5b600160a060020a0382161515612dd4576040805160e560020a62461bcd02815260206004820152601260248201527f496e76616c696420746f20616464726573730000000000000000000000000000604482015290519081900360640190fd5b612de2838260006002613b14565b612df0828260016002613b14565b600081815260036020526040808220805473ffffffffffffffffffffffffffffffffffffffff1916600160a060020a0386811691821790925591518493918716917fddf252ad1be2c89b69c2b068fc378daa952ba7f163c4a11628f55a4df523b3ef91a4505050565b6000903b1190565b610100601082020491600f90911690565b6001016010026101000360020a900461ffff1690565b600080600080612e99856003613b8b565b60f060020a9004612eab866002613b8b565b60f060020a9004612ebd876001613b8b565b60f060020a9004612ecf886000613b8b565b60f060020a900493509350935093509193509193565b3360008181526009602090815260408083205481516c01000000000000000000000000958602818501526034810191909152309094026054850152606880850186905281518086039091018152608890940190819052835192939290918291908401908083835b60208310612f6b5780518252601f199092019160209182019101612f4c565b5181516020939093036101000a6000190180199091169216919091179052604051920182900390912095945050505050565b6000806000806000808851118015612fb6575086518851145b8015612fc3575085518751145b1515613019576040805160e560020a62461bcd02815260206004820152601a60248201527f496e636f7272656374206e756d626572206f6620706172616d73000000000000604482015290519081900360640190fd5b600b54600c5460ff6101008304811692160281151561303457fe5b0488511015151561308f576040805160e560020a62461bcd02815260206004820152601060248201527f4e6f7420656e6f75676820766f74657300000000000000000000000000000000604482015290519081900360640190fd5b604080517f19457468657265756d205369676e6564204d6573736167653a0a333200000000602080830191909152603c8083018d905283518084039091018152605c90920192839052815191929182918401908083835b602083106131055780518252601f1990920191602091820191016130e6565b6001836020036101000a038019825116818451168082178552505050505050905001915050604051809103902094508751935060009250600091505b8382101561329157600185898481518110151561315a57fe5b90602001906020020151898581518110151561317257fe5b90602001906020020151898681518110151561318a57fe5b60209081029091018101516040805160008082528185018084529790975260ff9095168582015260608501939093526080840152905160a0808401949293601f19830193908390039091019190865af11580156131eb573d6000803e3d6000fd5b50505060206040510351905082600160a060020a031681600160a060020a03161180156132305750600160a060020a0381166000908152600a602052604090205460ff165b1515613286576040805160e560020a62461bcd02815260206004820152601f60248201527f4e6f74207369676e656420627920656e6f7567682076616c696461746f727300604482015290519081900360640190fd5b915060010181613141565b505050505050505050565b6132a5836113a7565b15156132fb576040805160e560020a62461bcd02815260206004820152601b60248201527f546f6b656e494420686173206e6f74206265656e206d696e7465640000000000604482015290519081900360640190fd5b61330483611fac565b15613316576133163084836001613b14565b6133238284836000613b14565b60408051600160a060020a038416815260208101839052815185927f7ebec69a24f70f6adc732c5d495ea40faf1248f959f11feafe0f9bbdc4e07b5a928290030190a2505050565b60008060008060008551604214151561338357600080fd5b85600081518110151561339257fe5b90602001015160f860020a900460f860020a0260f860020a900460ff1660028111156133ba57fe5b9350602186015191506041860151905060ff6042870151169250600160028111156133e157fe5b8460028111156133ed57fe5b141561349d57604080517f19457468657265756d205369676e6564204d6573736167653a0a333200000000602080830191909152603c8083018b905283518084039091018152605c90920192839052815191929182918401908083835b602083106134695780518252601f19909201916020918201910161344a565b6001836020036101000a03801982511681845116808217855250505050505090500191505060405180910390209650613557565b60028460028111156134ab57fe5b141561355757604080517f19457468657265756d205369676e6564204d6573736167653a0a200000000000602080830191909152603b8083018b905283518084039091018152605b90920192839052815191929182918401908083835b602083106135275780518252601f199092019160209182019101613508565b6001836020036101000a038019825116818451168082178552505050505050905001915050604051809103902096505b60408051600080825260208083018085528b905260ff8716838501526060830186905260808301859052925160019360a0808501949193601f19840193928390039091019190865af11580156135b1573d6000803e3d6000fd5b5050604051601f19015198975050505050505050565b6000806135dc85600160a060020a0316612e59565b15156135eb576001915061372b565b6040517f150b7a020000000000000000000000000000000000000000000000000000000081523360048201818152600160a060020a03898116602485015260448401889052608060648501908152875160848601528751918a169463150b7a0294938c938b938b93909160a490910190602085019080838360005b8381101561367e578181015183820152602001613666565b50505050905090810190601f1680156136ab5780820380516001836020036101000a031916815260200191505b5095505050505050602060405180830381600087803b1580156136cd57600080fd5b505af11580156136e1573d6000803e3d6000fd5b505050506040513d60208110156136f757600080fd5b5051600160e060020a031981167f150b7a020000000000000000000000000000000000000000000000000000000014925090505b50949350505050565b6000612640826001613b8b565b60608061374d836113a7565b15156137a3576040805160e560020a62461bcd02815260206004820152601360248201527f546f6b656e20646f65736e277420657869737400000000000000000000000000604482015290519081900360640190fd5b505060408051606081018252603181527f68747470733a2f2f72696e6b6562792e6c6f6f6d2e67616d65732f657263373260208201527f312f7a6d622f3030303030302e6a736f6e00000000000000000000000000000091810191909152807fff00000000000000000000000000000000000000000000000000000000000000600a61271085040660300160f860020a0216600081901a604783015350600a6103e884040660300160f860020a0281602881518110151561386057fe5b906020010190600160f860020a031916908160001a905350600a606484040660300160f860020a0281602981518110151561389757fe5b906020010190600160f860020a031916908160001a905350600a8084040660300160f860020a0281602a8151811015156138cd57fe5b906020010190600160f860020a031916908160001a905350600a830660300160f860020a0281602b81518110151561390157fe5b906020010190600160f860020a031916908160001a90535050919050565b60008061393486600160a060020a0316612e59565b15156139435760019150613a8c565b6040517f93ba7daa0000000000000000000000000000000000000000000000000000000081523360048201818152600160a060020a038a81166024850152604484018990526064840188905260a060848501908152875160a48601528751918b16946393ba7daa94938d938c938c938c939260c490910190602085019080838360005b838110156139de5781810151838201526020016139c6565b50505050905090810190601f168015613a0b5780820380516001836020036101000a031916815260200191505b509650505050505050602060405180830381600087803b158015613a2e57600080fd5b505af1158015613a42573d6000803e3d6000fd5b505050506040513d6020811015613a5857600080fd5b5051600160e060020a031981167f660b33700000000000000000000000000000000000000000000000000000000014925090505b5095945050505050565b600160a060020a0381161515613aab57600080fd5b600754604051600160a060020a038084169216907f8be0079c531659141344cd1fd0a4f28419497f9722a3daafe3b4186f6b6457e090600090a36007805473ffffffffffffffffffffffffffffffffffffffff1916600160a060020a0392909216919091179055565b600080613b2085612e61565b600160a060020a03881660009081526002602090815260408083208584529091529020549193509150613b5b9082868663ffffffff613bb416565b600160a060020a039096166000908152600260209081526040808320948352939052919091209490945550505050565b6000816003811115613b9957fe5b60100260ff16839060020a900460f060020a02905092915050565b60008080836002811115613bc457fe5b1415613bf757613bd48686612e72565b9050613bf08686613beb848863ffffffff613cee16565b613cfb565b915061372b565b6001836002811115613c0557fe5b1415613c2c57613c158686612e72565b9050613bf08686613beb848863ffffffff613da316565b6002836002811115613c3a57fe5b1415613c4b57613bf0868686613cfb565b6040805160e560020a62461bcd02815260206004820152601160248201527f496e76616c6964206f7065726174696f6e000000000000000000000000000000604482015290519081900360640190fd5b600082600160a060020a031684600160a060020a03161480613cd6575083600160a060020a0316613ccb83610cc4565b600160a060020a0316145b80613ce65750613ce683856120d7565b949350505050565b81810182811015610e2357fe5b60008080620100008410613d7f576040805160e560020a62461bcd02815260206004820152602360248201527f416d6f756e7420746f20777269746520696e2062696e20697320746f6f206c6160448201527f7267650000000000000000000000000000000000000000000000000000000000606482015290519081900360840190fd5b50505061ffff6001929092016010026101000360020a918202199290921691021790565b600082821115613daf57fe5b509003905600a165627a7a72305820a594dfc7589bc3c35d38420984bc008e6d6615e4e796c890f04fd9f51bd168ea0029",
  "source": "pragma solidity 0.4.24;\n\nimport \"./ZBGCard.sol\";\n\n// ZBGCard + functions required to migrate the user data from the old version\n// Should be as trustless as possible\ncontract MigratedZBGCard is ZBGCard {\n\n    bool migrated = false;\n    event MigrationStopped();\n\n    // Constructor\n    constructor (\n        address _gateway,\n        address[] _validators,\n        uint8 _threshold_num,\n        uint8 _threshold_denom\n    ) public ZBGCard(_gateway, _validators, _threshold_num, _threshold_denom) {}\n\n\n    // Validator wants to distribute tokens\n    function migrateTokens(uint256[] _tokenIds, address[] _receivers, uint256[] _amounts) external\n        onlyValidator\n    {\n        require(!migrated, \"data has been migrated already\");\n\n        uint256 length = _tokenIds.length;\n        require(length == _amounts.length && length == _receivers.length,\n                \"Invalid array lengths\"\n        );\n\n        for (uint256 i = 0; i < length; i++) {\n            _claimToken(_tokenIds[i], _receivers[i], _amounts[i]);\n        }\n    }\n\n    function stopMigration() external {\n        migrated = true;\n        emit MigrationStopped();\n    }\n}\n",
  "sourcePath": "/home/ubuntu/CardFaucet/contracts/Core/MigratedZBGCard.sol",
  "compiler": {
    "name": "solc",
    "version": "0.4.24+commit.e67f0147.Emscripten.clang"
  },
  "schemaVersion": "2.0.1",
  "updatedAt": "2018-09-19T06:49:17.531Z"
}