{
  "contractName": "PackSale",
  "abi": [
    {
      "constant": false,
      "inputs": [],
      "name": "renounceOwnership",
      "outputs": [],
      "payable": false,
      "stateMutability": "nonpayable",
      "type": "function"
    },
    {
      "constant": true,
      "inputs": [],
      "name": "owner",
      "outputs": [
        {
          "name": "",
          "type": "address"
        }
      ],
      "payable": false,
      "stateMutability": "view",
      "type": "function"
    },
    {
      "constant": false,
      "inputs": [
        {
          "name": "_newOwner",
          "type": "address"
        }
      ],
      "name": "transferOwnership",
      "outputs": [],
      "payable": false,
      "stateMutability": "nonpayable",
      "type": "function"
    },
    {
      "inputs": [
        {
          "name": "creator",
          "type": "address"
        },
        {
          "name": "boosterPackAddr",
          "type": "address"
        },
        {
          "name": "superPackAddr",
          "type": "address"
        },
        {
          "name": "airPackAddr",
          "type": "address"
        },
        {
          "name": "earthPackAddr",
          "type": "address"
        },
        {
          "name": "firePackAddr",
          "type": "address"
        },
        {
          "name": "lifePackAddr",
          "type": "address"
        },
        {
          "name": "toxicPackAddr",
          "type": "address"
        },
        {
          "name": "waterPackAddr",
          "type": "address"
        }
      ],
      "payable": false,
      "stateMutability": "nonpayable",
      "type": "constructor"
    },
    {
      "anonymous": false,
      "inputs": [
        {
          "indexed": false,
          "name": "customer",
          "type": "address"
        },
        {
          "indexed": false,
          "name": "amounts",
          "type": "uint256[8]"
        },
        {
          "indexed": false,
          "name": "totalPrice",
          "type": "uint256"
        }
      ],
      "name": "PurchaseSent",
      "type": "event"
    },
    {
      "anonymous": false,
      "inputs": [
        {
          "indexed": true,
          "name": "previousOwner",
          "type": "address"
        }
      ],
      "name": "OwnershipRenounced",
      "type": "event"
    },
    {
      "anonymous": false,
      "inputs": [
        {
          "indexed": true,
          "name": "previousOwner",
          "type": "address"
        },
        {
          "indexed": true,
          "name": "newOwner",
          "type": "address"
        }
      ],
      "name": "OwnershipTransferred",
      "type": "event"
    },
    {
      "constant": false,
      "inputs": [
        {
          "name": "_type",
          "type": "uint256"
        },
        {
          "name": "_newPrice",
          "type": "uint256"
        }
      ],
      "name": "setPackPrice",
      "outputs": [],
      "payable": false,
      "stateMutability": "nonpayable",
      "type": "function"
    },
    {
      "constant": false,
      "inputs": [
        {
          "name": "amounts",
          "type": "uint256[8]"
        }
      ],
      "name": "purchasePacks",
      "outputs": [],
      "payable": true,
      "stateMutability": "payable",
      "type": "function"
    },
    {
      "constant": false,
      "inputs": [],
      "name": "getCurrentPrice",
      "outputs": [
        {
          "name": "currentPrice",
          "type": "uint256[8]"
        }
      ],
      "payable": false,
      "stateMutability": "nonpayable",
      "type": "function"
    }
  ],
  "bytecode": "0x60806040526101006040519081016040528067016345785d8a000067ffffffffffffffff168152602001670429d069189e000067ffffffffffffffff1681526020016702c68af0bb14000067ffffffffffffffff1681526020016702c68af0bb14000067ffffffffffffffff1681526020016702c68af0bb14000067ffffffffffffffff1681526020016702c68af0bb14000067ffffffffffffffff1681526020016702c68af0bb14000067ffffffffffffffff1681526020016702c68af0bb14000067ffffffffffffffff16815250600a906008620000e19291906200040d565b50348015620000ef57600080fd5b5060405161012080620015368339810180604052810190808051906020019092919080519060200190929190805190602001909291908051906020019092919080519060200190929190805190602001909291908051906020019092919080519060200190929190805190602001909291905050506000336000806101000a81548173ffffffffffffffffffffffffffffffffffffffff021916908373ffffffffffffffffffffffffffffffffffffffff16021790555088600260006101000a81548173ffffffffffffffffffffffffffffffffffffffff021916908373ffffffffffffffffffffffffffffffffffffffff16021790555087600360006101000a81548173ffffffffffffffffffffffffffffffffffffffff021916908373ffffffffffffffffffffffffffffffffffffffff16021790555086600460006101000a81548173ffffffffffffffffffffffffffffffffffffffff021916908373ffffffffffffffffffffffffffffffffffffffff16021790555085600560006101000a81548173ffffffffffffffffffffffffffffffffffffffff021916908373ffffffffffffffffffffffffffffffffffffffff16021790555084600660006101000a81548173ffffffffffffffffffffffffffffffffffffffff021916908373ffffffffffffffffffffffffffffffffffffffff16021790555083600760006101000a81548173ffffffffffffffffffffffffffffffffffffffff021916908373ffffffffffffffffffffffffffffffffffffffff16021790555082600860006101000a81548173ffffffffffffffffffffffffffffffffffffffff021916908373ffffffffffffffffffffffffffffffffffffffff16021790555081600960006101000a81548173ffffffffffffffffffffffffffffffffffffffff021916908373ffffffffffffffffffffffffffffffffffffffff160217905550600090505b60088160ff161015620003fd57600a8160ff16600881101515620003d357fe5b0154601260008360ff168152602001908152602001600020819055508080600101915050620003b3565b5050505050505050505062000486565b82600881019282156200044b579160200282015b828111156200044a578251829067ffffffffffffffff1690559160200191906001019062000421565b5b5090506200045a91906200045e565b5090565b6200048391905b808211156200047f57600081600090555060010162000465565b5090565b90565b6110a080620004966000396000f300608060405260043610610078576000357c0100000000000000000000000000000000000000000000000000000000900463ffffffff168063715018a61461007d5780638da5cb5b14610094578063aee1ce19146100eb578063b17e7ea014610122578063eb91d37e14610143578063f2fde38b14610196575b600080fd5b34801561008957600080fd5b506100926101d9565b005b3480156100a057600080fd5b506100a96102db565b604051808273ffffffffffffffffffffffffffffffffffffffff1673ffffffffffffffffffffffffffffffffffffffff16815260200191505060405180910390f35b3480156100f757600080fd5b506101206004803603810190808035906020019092919080359060200190929190505050610300565b005b61014160048036038101908080610100019091929192905050506103fd565b005b34801561014f57600080fd5b50610158610e3f565b6040518082600860200280838360005b83811015610183578082015181840152602081019050610168565b5050505090500191505060405180910390f35b3480156101a257600080fd5b506101d7600480360381019080803573ffffffffffffffffffffffffffffffffffffffff169060200190929190505050610e92565b005b6000809054906101000a900473ffffffffffffffffffffffffffffffffffffffff1673ffffffffffffffffffffffffffffffffffffffff163373ffffffffffffffffffffffffffffffffffffffff1614151561023457600080fd5b6000809054906101000a900473ffffffffffffffffffffffffffffffffffffffff1673ffffffffffffffffffffffffffffffffffffffff167ff8df31144d9c2f0f6b59d69b8b98abd5459d07f2742c4df920b25aae33c6482060405160405180910390a260008060006101000a81548173ffffffffffffffffffffffffffffffffffffffff021916908373ffffffffffffffffffffffffffffffffffffffff160217905550565b6000809054906101000a900473ffffffffffffffffffffffffffffffffffffffff1681565b6000809054906101000a900473ffffffffffffffffffffffffffffffffffffffff1673ffffffffffffffffffffffffffffffffffffffff163373ffffffffffffffffffffffffffffffffffffffff1614151561035b57600080fd5b6000821015801561036d575060078211155b15156103e1576040517f08c379a00000000000000000000000000000000000000000000000000000000081526004018080602001828103825260178152602001807f5061636b207479706520646f65736e277420657869737400000000000000000081525060200191505060405180910390fd5b8060126000848152602001908152602001600020819055505050565b6000600880141515610477576040517f08c379a00000000000000000000000000000000000000000000000000000000081526004018080602001828103825260158152602001807f496e76616c696420616d6f756e74732076616c7565000000000000000000000081525060200191505060405180910390fd5b6104a58260088060200260405190810160405280929190826008602002808284378201915050505050610ef9565b905080341015151561051f576040517f08c379a00000000000000000000000000000000000000000000000000000000081526004018080602001828103825260178152602001807f496e73756666696369656e742065746820616d6f756e7400000000000000000081525060200191505060405180910390fd5b600260009054906101000a900473ffffffffffffffffffffffffffffffffffffffff1673ffffffffffffffffffffffffffffffffffffffff166340c10f193384600060088110151561056d57fe5b60200201356040518363ffffffff167c0100000000000000000000000000000000000000000000000000000000028152600401808373ffffffffffffffffffffffffffffffffffffffff1673ffffffffffffffffffffffffffffffffffffffff16815260200182815260200192505050602060405180830381600087803b1580156105f757600080fd5b505af115801561060b573d6000803e3d6000fd5b505050506040513d602081101561062157600080fd5b810190808051906020019092919050505050600360009054906101000a900473ffffffffffffffffffffffffffffffffffffffff1673ffffffffffffffffffffffffffffffffffffffff166340c10f193384600160088110151561068157fe5b60200201356040518363ffffffff167c0100000000000000000000000000000000000000000000000000000000028152600401808373ffffffffffffffffffffffffffffffffffffffff1673ffffffffffffffffffffffffffffffffffffffff16815260200182815260200192505050602060405180830381600087803b15801561070b57600080fd5b505af115801561071f573d6000803e3d6000fd5b505050506040513d602081101561073557600080fd5b810190808051906020019092919050505050600460009054906101000a900473ffffffffffffffffffffffffffffffffffffffff1673ffffffffffffffffffffffffffffffffffffffff166340c10f193384600260088110151561079557fe5b60200201356040518363ffffffff167c0100000000000000000000000000000000000000000000000000000000028152600401808373ffffffffffffffffffffffffffffffffffffffff1673ffffffffffffffffffffffffffffffffffffffff16815260200182815260200192505050602060405180830381600087803b15801561081f57600080fd5b505af1158015610833573d6000803e3d6000fd5b505050506040513d602081101561084957600080fd5b810190808051906020019092919050505050600560009054906101000a900473ffffffffffffffffffffffffffffffffffffffff1673ffffffffffffffffffffffffffffffffffffffff166340c10f19338460036008811015156108a957fe5b60200201356040518363ffffffff167c0100000000000000000000000000000000000000000000000000000000028152600401808373ffffffffffffffffffffffffffffffffffffffff1673ffffffffffffffffffffffffffffffffffffffff16815260200182815260200192505050602060405180830381600087803b15801561093357600080fd5b505af1158015610947573d6000803e3d6000fd5b505050506040513d602081101561095d57600080fd5b810190808051906020019092919050505050600660009054906101000a900473ffffffffffffffffffffffffffffffffffffffff1673ffffffffffffffffffffffffffffffffffffffff166340c10f19338460046008811015156109bd57fe5b60200201356040518363ffffffff167c0100000000000000000000000000000000000000000000000000000000028152600401808373ffffffffffffffffffffffffffffffffffffffff1673ffffffffffffffffffffffffffffffffffffffff16815260200182815260200192505050602060405180830381600087803b158015610a4757600080fd5b505af1158015610a5b573d6000803e3d6000fd5b505050506040513d6020811015610a7157600080fd5b810190808051906020019092919050505050600760009054906101000a900473ffffffffffffffffffffffffffffffffffffffff1673ffffffffffffffffffffffffffffffffffffffff166340c10f1933846005600881101515610ad157fe5b60200201356040518363ffffffff167c0100000000000000000000000000000000000000000000000000000000028152600401808373ffffffffffffffffffffffffffffffffffffffff1673ffffffffffffffffffffffffffffffffffffffff16815260200182815260200192505050602060405180830381600087803b158015610b5b57600080fd5b505af1158015610b6f573d6000803e3d6000fd5b505050506040513d6020811015610b8557600080fd5b810190808051906020019092919050505050600860009054906101000a900473ffffffffffffffffffffffffffffffffffffffff1673ffffffffffffffffffffffffffffffffffffffff166340c10f1933846006600881101515610be557fe5b60200201356040518363ffffffff167c0100000000000000000000000000000000000000000000000000000000028152600401808373ffffffffffffffffffffffffffffffffffffffff1673ffffffffffffffffffffffffffffffffffffffff16815260200182815260200192505050602060405180830381600087803b158015610c6f57600080fd5b505af1158015610c83573d6000803e3d6000fd5b505050506040513d6020811015610c9957600080fd5b810190808051906020019092919050505050600960009054906101000a900473ffffffffffffffffffffffffffffffffffffffff1673ffffffffffffffffffffffffffffffffffffffff166340c10f1933846007600881101515610cf957fe5b60200201356040518363ffffffff167c0100000000000000000000000000000000000000000000000000000000028152600401808373ffffffffffffffffffffffffffffffffffffffff1673ffffffffffffffffffffffffffffffffffffffff16815260200182815260200192505050602060405180830381600087803b158015610d8357600080fd5b505af1158015610d97573d6000803e3d6000fd5b505050506040513d6020811015610dad57600080fd5b8101908080519060200190929190505050507f550052fe43d629dcede204090490278d88d384e63b1029437d157365571ed743338383604051808473ffffffffffffffffffffffffffffffffffffffff1673ffffffffffffffffffffffffffffffffffffffff168152602001836008602002808284378201915050828152602001935050505060405180910390a15050565b610e47611050565b60008090505b6008811015610e8e5760126000828152602001908152602001600020548282600881101515610e7857fe5b6020020181815250508080600101915050610e4d565b5090565b6000809054906101000a900473ffffffffffffffffffffffffffffffffffffffff1673ffffffffffffffffffffffffffffffffffffffff163373ffffffffffffffffffffffffffffffffffffffff16141515610eed57600080fd5b610ef681610f56565b50565b60008060009150600090505b60088160ff161015610f5057601260008260ff16815260200190815260200160002054838260ff16600881101515610f3957fe5b602002015102820191508080600101915050610f05565b50919050565b600073ffffffffffffffffffffffffffffffffffffffff168173ffffffffffffffffffffffffffffffffffffffff1614151515610f9257600080fd5b8073ffffffffffffffffffffffffffffffffffffffff166000809054906101000a900473ffffffffffffffffffffffffffffffffffffffff1673ffffffffffffffffffffffffffffffffffffffff167f8be0079c531659141344cd1fd0a4f28419497f9722a3daafe3b4186f6b6457e060405160405180910390a3806000806101000a81548173ffffffffffffffffffffffffffffffffffffffff021916908373ffffffffffffffffffffffffffffffffffffffff16021790555050565b610100604051908101604052806008906020820280388339808201915050905050905600a165627a7a7230582079e1a23e96ef5d471bf298c1f7e16d8b552535843a6884a247f595f3ac25d6240029",
  "source": "pragma solidity 0.4.24;\n\nimport {MintableToken as ERC20} from \"openzeppelin-solidity/contracts/token/ERC20/MintableToken.sol\";\nimport \"openzeppelin-solidity/contracts/ownership/Ownable.sol\";\n\n\ncontract PackSale is Ownable {\n\n    event PurchaseSent(address customer,uint256[8] amounts, uint256 totalPrice);\n    \n    address deployer;\n\n    ERC20 boosterPack;\n    ERC20 superPack;\n    ERC20 airPack;\n    ERC20 earthPack;\n    ERC20 firePack;\n    ERC20 lifePack;\n    ERC20 toxicPack;\n    ERC20 waterPack;\n\n    // TODO: recheck unit\n    uint256[8] defaultPackPrice = [0.1 ether, 0.3 ether, 0.2 ether, 0.2 ether, 0.2 ether, 0.2 ether, 0.2 ether, 0.2 ether];\n\n    // pack type => price\n    mapping(uint256 => uint256) prices;\n\n    constructor (\n        address creator,\n        address boosterPackAddr,\n        address superPackAddr,\n        address airPackAddr,\n        address earthPackAddr,\n        address firePackAddr,\n        address lifePackAddr,\n        address toxicPackAddr,\n        address waterPackAddr\n    ) public {\n        boosterPack = ERC20(boosterPackAddr);\n        superPack = ERC20(superPackAddr);\n        airPack = ERC20(airPackAddr);\n        earthPack = ERC20(earthPackAddr);\n        firePack = ERC20(firePackAddr);\n        lifePack = ERC20(lifePackAddr);\n        toxicPack = ERC20(toxicPackAddr);\n        waterPack = ERC20(waterPackAddr);\n        Ownable(creator);\n\n        // set default packs price\n        for (uint8 packType = 0; packType < 8; packType++) {\n            prices[packType] = defaultPackPrice[packType];\n        }\n\n    }\n\n    function setPackPrice(uint256 _type, uint256 _newPrice) external onlyOwner {\n        require(_type >= 0 && _type <= 7, \"Pack type doesn't exist\");\n        prices[_type] = _newPrice;\n    }\n\n    function purchasePacks(uint256[8] amounts) external payable {\n        require(amounts.length == 8, \"Invalid amounts value\");\n        uint256 packPrice = calculatePackPrice(amounts);\n        require(msg.value >= packPrice, \"Insufficient eth amount\");\n        boosterPack.mint(msg.sender, amounts[0]);\n        superPack.mint(msg.sender, amounts[1]);\n        airPack.mint(msg.sender, amounts[2]);\n        earthPack.mint(msg.sender, amounts[3]);\n        firePack.mint(msg.sender, amounts[4]);\n        lifePack.mint(msg.sender, amounts[5]);\n        toxicPack.mint(msg.sender, amounts[6]);\n        waterPack.mint(msg.sender, amounts[7]);\n        emit PurchaseSent(msg.sender, amounts, packPrice);\n    }\n\n    function calculatePackPrice(uint256[8] _amounts) private returns (uint256 total){\n        total = 0;\n        for (var packType = 0; packType < _amounts.length; packType++) {\n            total += _amounts[packType] * prices[packType];\n        }\n    }\n\n    function getCurrentPrice() external returns (uint256[8] currentPrice) {\n        for(uint256 index=0; index < 8; index++) {\n            currentPrice[index] = prices[index];\n        }\n    }\n}\n",
  "sourcePath": "/Users/loom1/Loom/pack-purchase/contracts/PackSale.sol",
  "compiler": {
    "name": "solc",
    "version": "0.4.24+commit.e67f0147.Emscripten.clang"
  },
  "schemaVersion": "2.0.1",
  "updatedAt": "2018-11-08T12:38:34.328Z"
}